{
  "contractName": "Test",
  "abi": [
    {
      "inputs": [],
      "stateMutability": "nonpayable",
      "type": "constructor"
    },
    {
      "inputs": [],
      "name": "getText",
      "outputs": [
        {
          "internalType": "string",
          "name": "",
          "type": "string"
        }
      ],
      "stateMutability": "view",
      "type": "function",
      "constant": true
    },
    {
      "inputs": [
        {
          "internalType": "string",
          "name": "_value",
          "type": "string"
        }
      ],
      "name": "setText",
      "outputs": [],
      "stateMutability": "nonpayable",
      "type": "function"
    },
    {
      "inputs": [],
      "name": "getResult",
      "outputs": [
        {
          "internalType": "int256",
          "name": "",
          "type": "int256"
        }
      ],
      "stateMutability": "view",
      "type": "function",
      "constant": true
    },
    {
      "inputs": [
        {
          "internalType": "int256",
          "name": "_num",
          "type": "int256"
        },
        {
          "internalType": "int256",
          "name": "_num2",
          "type": "int256"
        }
      ],
      "name": "add",
      "outputs": [],
      "stateMutability": "nonpayable",
      "type": "function"
    },
    {
      "inputs": [
        {
          "internalType": "int256",
          "name": "_num",
          "type": "int256"
        },
        {
          "internalType": "int256",
          "name": "_num2",
          "type": "int256"
        }
      ],
      "name": "minus",
      "outputs": [],
      "stateMutability": "nonpayable",
      "type": "function"
    }
  ],
  "bytecode": "0x60806040523480156200001157600080fd5b506040518060400160405280600981526020017f486920426c6f636b37000000000000000000000000000000000000000000000081525060009081620000589190620002e1565b506000600181905550620003c8565b600081519050919050565b7f4e487b7100000000000000000000000000000000000000000000000000000000600052604160045260246000fd5b7f4e487b7100000000000000000000000000000000000000000000000000000000600052602260045260246000fd5b60006002820490506001821680620000e957607f821691505b602082108103620000ff57620000fe620000a1565b5b50919050565b60008190508160005260206000209050919050565b60006020601f8301049050919050565b600082821b905092915050565b600060088302620001697fffffffffffffffffffffffffffffffffffffffffffffffffffffffffffffffff826200012a565b6200017586836200012a565b95508019841693508086168417925050509392505050565b6000819050919050565b6000819050919050565b6000620001c2620001bc620001b6846200018d565b62000197565b6200018d565b9050919050565b6000819050919050565b620001de83620001a1565b620001f6620001ed82620001c9565b84845462000137565b825550505050565b600090565b6200020d620001fe565b6200021a818484620001d3565b505050565b5b8181101562000242576200023660008262000203565b60018101905062000220565b5050565b601f82111562000291576200025b8162000105565b62000266846200011a565b8101602085101562000276578190505b6200028e62000285856200011a565b8301826200021f565b50505b505050565b600082821c905092915050565b6000620002b66000198460080262000296565b1980831691505092915050565b6000620002d18383620002a3565b9150826002028217905092915050565b620002ec8262000067565b67ffffffffffffffff81111562000308576200030762000072565b5b620003148254620000d0565b6200032182828562000246565b600060209050601f83116001811462000359576000841562000344578287015190505b620003508582620002c3565b865550620003c0565b601f198416620003698662000105565b60005b8281101562000393578489015182556001820191506020850194506020810190506200036c565b86831015620003b35784890151620003af601f891682620002a3565b8355505b6001600288020188555050505b505050505050565b61089980620003d86000396000f3fe608060405234801561001057600080fd5b50600436106100575760003560e01c80631858c77d1461005c5780635d3a1f9d14610078578063a5f3c23b14610094578063de292789146100b0578063e00fe2eb146100ce575b600080fd5b6100766004803603810190610071919061022b565b6100ec565b005b610092600480360381019061008d91906103b1565b61011c565b005b6100ae60048036038101906100a9919061022b565b61012f565b005b6100b8610145565b6040516100c59190610409565b60405180910390f35b6100d661014f565b6040516100e391906104a3565b60405180910390f35b8082121561010557818161010091906104f4565b610112565b808261011191906104f4565b5b6001819055505050565b806000908161012b919061074d565b5050565b808261013b919061081f565b6001819055505050565b6000600154905090565b60606000805461015e90610566565b80601f016020809104026020016040519081016040528092919081815260200182805461018a90610566565b80156101d75780601f106101ac576101008083540402835291602001916101d7565b820191906000526020600020905b8154815290600101906020018083116101ba57829003601f168201915b5050505050905090565b6000604051905090565b600080fd5b600080fd5b6000819050919050565b610208816101f5565b811461021357600080fd5b50565b600081359050610225816101ff565b92915050565b60008060408385031215610242576102416101eb565b5b600061025085828601610216565b925050602061026185828601610216565b9150509250929050565b600080fd5b600080fd5b6000601f19601f8301169050919050565b7f4e487b7100000000000000000000000000000000000000000000000000000000600052604160045260246000fd5b6102be82610275565b810181811067ffffffffffffffff821117156102dd576102dc610286565b5b80604052505050565b60006102f06101e1565b90506102fc82826102b5565b919050565b600067ffffffffffffffff82111561031c5761031b610286565b5b61032582610275565b9050602081019050919050565b82818337600083830152505050565b600061035461034f84610301565b6102e6565b9050828152602081018484840111156103705761036f610270565b5b61037b848285610332565b509392505050565b600082601f8301126103985761039761026b565b5b81356103a8848260208601610341565b91505092915050565b6000602082840312156103c7576103c66101eb565b5b600082013567ffffffffffffffff8111156103e5576103e46101f0565b5b6103f184828501610383565b91505092915050565b610403816101f5565b82525050565b600060208201905061041e60008301846103fa565b92915050565b600081519050919050565b600082825260208201905092915050565b60005b8381101561045e578082015181840152602081019050610443565b60008484015250505050565b600061047582610424565b61047f818561042f565b935061048f818560208601610440565b61049881610275565b840191505092915050565b600060208201905081810360008301526104bd818461046a565b905092915050565b7f4e487b7100000000000000000000000000000000000000000000000000000000600052601160045260246000fd5b60006104ff826101f5565b915061050a836101f5565b9250828203905081811260008412168282136000851215161715610531576105306104c5565b5b92915050565b7f4e487b7100000000000000000000000000000000000000000000000000000000600052602260045260246000fd5b6000600282049050600182168061057e57607f821691505b60208210810361059157610590610537565b5b50919050565b60008190508160005260206000209050919050565b60006020601f8301049050919050565b600082821b905092915050565b6000600883026105f97fffffffffffffffffffffffffffffffffffffffffffffffffffffffffffffffff826105bc565b61060386836105bc565b95508019841693508086168417925050509392505050565b6000819050919050565b6000819050919050565b600061064a6106456106408461061b565b610625565b61061b565b9050919050565b6000819050919050565b6106648361062f565b61067861067082610651565b8484546105c9565b825550505050565b600090565b61068d610680565b61069881848461065b565b505050565b5b818110156106bc576106b1600082610685565b60018101905061069e565b5050565b601f821115610701576106d281610597565b6106db846105ac565b810160208510156106ea578190505b6106fe6106f6856105ac565b83018261069d565b50505b505050565b600082821c905092915050565b600061072460001984600802610706565b1980831691505092915050565b600061073d8383610713565b9150826002028217905092915050565b61075682610424565b67ffffffffffffffff81111561076f5761076e610286565b5b6107798254610566565b6107848282856106c0565b600060209050601f8311600181146107b757600084156107a5578287015190505b6107af8582610731565b865550610817565b601f1984166107c586610597565b60005b828110156107ed578489015182556001820191506020850194506020810190506107c8565b8683101561080a5784890151610806601f891682610713565b8355505b6001600288020188555050505b505050505050565b600061082a826101f5565b9150610835836101f5565b92508282019050828112156000831216838212600084121516171561085d5761085c6104c5565b5b9291505056fea2646970667358221220876c1661300e9d46c18e0142ec16200fe8338c6ff9abdfeaff8d5a8d79bc66ed64736f6c63430008120033",
  "immutableReferences": {},
  "source": "// SPDX-License-Identifier: MIT\r\n//   <<   ? \r\npragma solidity ^0.8.18;\r\n\r\n//   ,  0.5.15\r\n\r\ncontract Test {\r\n  // contract : javascript class .\r\n  string text;\r\n  int result;\r\n\r\n  constructor() {\r\n    text = \"Hi Block7\";\r\n    result = 0;\r\n  }\r\n\r\n  function getText() public view returns (string memory) {\r\n    // public :   \r\n    // view :     / pure ( )\r\n    // returns :  \r\n    // memory :    ,    (  )( )\r\n    return text;\r\n  }\r\n\r\n  function setText(string memory _value) public {\r\n    text = _value;\r\n  }\r\n\r\n  function getResult() public view returns (int) {\r\n    return result;\r\n  }\r\n\r\n  function add(int _num, int _num2) public {\r\n    result = _num + _num2;\r\n  }\r\n\r\n  function minus(int _num, int _num2) public {\r\n    result = (_num >= _num2) ? _num - _num2 : _num2 - _num;\r\n  }\r\n}\r\n",
  "sourcePath": "C:\\Users\\KGA_29\\Desktop\\blockchain_class\\\\230302\\contracts\\Test.sol",
  "compiler": {
    "name": "solc",
    "version": "0.8.18+commit.87f61d96.Emscripten.clang"
  },
  "schemaVersion": "3.4.12",
  "updatedAt": "2023-03-02T01:45:32.593Z",
  "networkType": "ethereum",
  "devdoc": {
    "kind": "dev",
    "methods": {},
    "version": 1
  },
  "userdoc": {
    "kind": "user",
    "methods": {},
    "version": 1
  }
}