{
	"contracts/Fundraising.sol": {
		"Fundraising": {
			"abi": [
				{
					"inputs": [
						{
							"internalType": "uint256",
							"name": "_targetAmount",
							"type": "uint256"
						},
						{
							"internalType": "uint256",
							"name": "_weeks",
							"type": "uint256"
						},
						{
							"internalType": "uint256",
							"name": "_days",
							"type": "uint256"
						},
						{
							"internalType": "uint256",
							"name": "_hours",
							"type": "uint256"
						},
						{
							"internalType": "uint256",
							"name": "_minutes",
							"type": "uint256"
						},
						{
							"internalType": "uint256",
							"name": "_seconds",
							"type": "uint256"
						}
					],
					"stateMutability": "nonpayable",
					"type": "constructor"
				},
				{
					"inputs": [],
					"name": "cancelFund",
					"outputs": [],
					"stateMutability": "payable",
					"type": "function"
				},
				{
					"inputs": [
						{
							"internalType": "address",
							"name": "",
							"type": "address"
						}
					],
					"name": "donations",
					"outputs": [
						{
							"internalType": "uint256",
							"name": "",
							"type": "uint256"
						}
					],
					"stateMutability": "view",
					"type": "function"
				},
				{
					"inputs": [],
					"name": "finishTime",
					"outputs": [
						{
							"internalType": "uint256",
							"name": "",
							"type": "uint256"
						}
					],
					"stateMutability": "view",
					"type": "function"
				},
				{
					"inputs": [],
					"name": "getDonation",
					"outputs": [
						{
							"internalType": "uint256",
							"name": "",
							"type": "uint256"
						}
					],
					"stateMutability": "view",
					"type": "function"
				},
				{
					"inputs": [],
					"name": "owner",
					"outputs": [
						{
							"internalType": "address",
							"name": "",
							"type": "address"
						}
					],
					"stateMutability": "view",
					"type": "function"
				},
				{
					"inputs": [],
					"name": "refund",
					"outputs": [],
					"stateMutability": "payable",
					"type": "function"
				},
				{
					"inputs": [],
					"name": "targetAmount",
					"outputs": [
						{
							"internalType": "uint256",
							"name": "",
							"type": "uint256"
						}
					],
					"stateMutability": "view",
					"type": "function"
				},
				{
					"inputs": [],
					"name": "withdrawDonations",
					"outputs": [],
					"stateMutability": "payable",
					"type": "function"
				},
				{
					"stateMutability": "payable",
					"type": "receive"
				}
			],
			"devdoc": {
				"kind": "dev",
				"methods": {},
				"version": 1
			},
			"evm": {
				"assembly": "    /* \"contracts/Fundraising.sol\":61:2019  contract Fundraising {... */\n  mstore(0x40, 0x80)\n    /* \"contracts/Fundraising.sol\":238:675  constructor(... */\n  callvalue\n  dup1\n  iszero\n  tag_1\n  jumpi\n  0x00\n  dup1\n  revert\ntag_1:\n  pop\n  mload(0x40)\n  sub(codesize, bytecodeSize)\n  dup1\n  bytecodeSize\n  dup4\n  codecopy\n  dup2\n  dup2\n  add\n  0x40\n  mstore\n  dup2\n  add\n  swap1\n  tag_2\n  swap2\n  swap1\n  tag_3\n  jump\t// in\ntag_2:\n    /* \"contracts/Fundraising.sol\":395:408  _targetAmount */\n  dup6\n    /* \"contracts/Fundraising.sol\":380:392  targetAmount */\n  0x00\n    /* \"contracts/Fundraising.sol\":380:408  targetAmount = _targetAmount */\n  dup2\n  swap1\n  sstore\n  pop\n    /* \"contracts/Fundraising.sol\":423:433  msg.sender */\n  caller\n    /* \"contracts/Fundraising.sol\":415:420  owner */\n  0x01\n  0x00\n    /* \"contracts/Fundraising.sol\":415:433  owner = msg.sender */\n  0x0100\n  exp\n  dup2\n  sload\n  dup2\n  0xffffffffffffffffffffffffffffffffffffffff\n  mul\n  not\n  and\n  swap1\n  dup4\n  0xffffffffffffffffffffffffffffffffffffffff\n  and\n  mul\n  or\n  swap1\n  sstore\n  pop\n    /* \"contracts/Fundraising.sol\":455:456  0 */\n  0x00\n    /* \"contracts/Fundraising.sol\":440:452  raisedAmount */\n  0x03\n    /* \"contracts/Fundraising.sol\":440:456  raisedAmount = 0 */\n  dup2\n  swap1\n  sstore\n  pop\n    /* \"contracts/Fundraising.sol\":660:669  1 seconds */\n  0x01\n    /* \"contracts/Fundraising.sol\":642:650  _seconds */\n  dup2\n    /* \"contracts/Fundraising.sol\":642:669  _seconds *... */\n  tag_6\n  swap2\n  swap1\n  tag_7\n  jump\t// in\ntag_6:\n    /* \"contracts/Fundraising.sol\":623:632  1 minutes */\n  0x3c\n    /* \"contracts/Fundraising.sol\":605:613  _minutes */\n  dup4\n    /* \"contracts/Fundraising.sol\":605:632  _minutes *... */\n  tag_8\n  swap2\n  swap1\n  tag_7\n  jump\t// in\ntag_8:\n    /* \"contracts/Fundraising.sol\":588:595  1 hours */\n  0x0e10\n    /* \"contracts/Fundraising.sol\":572:578  _hours */\n  dup6\n    /* \"contracts/Fundraising.sol\":572:595  _hours *... */\n  tag_9\n  swap2\n  swap1\n  tag_7\n  jump\t// in\ntag_9:\n    /* \"contracts/Fundraising.sol\":556:562  1 days */\n  0x015180\n    /* \"contracts/Fundraising.sol\":541:546  _days */\n  dup8\n    /* \"contracts/Fundraising.sol\":541:562  _days *... */\n  tag_10\n  swap2\n  swap1\n  tag_7\n  jump\t// in\ntag_10:\n    /* \"contracts/Fundraising.sol\":524:531  1 weeks */\n  0x093a80\n    /* \"contracts/Fundraising.sol\":508:514  _weeks */\n  dup10\n    /* \"contracts/Fundraising.sol\":508:531  _weeks *... */\n  tag_11\n  swap2\n  swap1\n  tag_7\n  jump\t// in\ntag_11:\n    /* \"contracts/Fundraising.sol\":483:498  block.timestamp */\n  timestamp\n    /* \"contracts/Fundraising.sol\":483:531  block.timestamp +... */\n  tag_12\n  swap2\n  swap1\n  tag_13\n  jump\t// in\ntag_12:\n    /* \"contracts/Fundraising.sol\":483:562  block.timestamp +... */\n  tag_14\n  swap2\n  swap1\n  tag_13\n  jump\t// in\ntag_14:\n    /* \"contracts/Fundraising.sol\":483:595  block.timestamp +... */\n  tag_15\n  swap2\n  swap1\n  tag_13\n  jump\t// in\ntag_15:\n    /* \"contracts/Fundraising.sol\":483:632  block.timestamp +... */\n  tag_16\n  swap2\n  swap1\n  tag_13\n  jump\t// in\ntag_16:\n    /* \"contracts/Fundraising.sol\":483:669  block.timestamp +... */\n  tag_17\n  swap2\n  swap1\n  tag_13\n  jump\t// in\ntag_17:\n    /* \"contracts/Fundraising.sol\":463:473  finishTime */\n  0x04\n    /* \"contracts/Fundraising.sol\":463:669  finishTime =... */\n  dup2\n  swap1\n  sstore\n  pop\n    /* \"contracts/Fundraising.sol\":238:675  constructor(... */\n  pop\n  pop\n  pop\n  pop\n  pop\n  pop\n    /* \"contracts/Fundraising.sol\":61:2019  contract Fundraising {... */\n  jump(tag_18)\n    /* \"#utility.yul\":88:205   */\ntag_20:\n    /* \"#utility.yul\":197:198   */\n  0x00\n    /* \"#utility.yul\":194:195   */\n  dup1\n    /* \"#utility.yul\":187:199   */\n  revert\n    /* \"#utility.yul\":334:411   */\ntag_22:\n    /* \"#utility.yul\":371:378   */\n  0x00\n    /* \"#utility.yul\":400:405   */\n  dup2\n    /* \"#utility.yul\":389:405   */\n  swap1\n  pop\n    /* \"#utility.yul\":334:411   */\n  swap2\n  swap1\n  pop\n  jump\t// out\n    /* \"#utility.yul\":417:539   */\ntag_23:\n    /* \"#utility.yul\":490:514   */\n  tag_32\n    /* \"#utility.yul\":508:513   */\n  dup2\n    /* \"#utility.yul\":490:514   */\n  tag_22\n  jump\t// in\ntag_32:\n    /* \"#utility.yul\":483:488   */\n  dup2\n    /* \"#utility.yul\":480:515   */\n  eq\n    /* \"#utility.yul\":470:533   */\n  tag_33\n  jumpi\n    /* \"#utility.yul\":529:530   */\n  0x00\n    /* \"#utility.yul\":526:527   */\n  dup1\n    /* \"#utility.yul\":519:531   */\n  revert\n    /* \"#utility.yul\":470:533   */\ntag_33:\n    /* \"#utility.yul\":417:539   */\n  pop\n  jump\t// out\n    /* \"#utility.yul\":545:688   */\ntag_24:\n    /* \"#utility.yul\":602:607   */\n  0x00\n    /* \"#utility.yul\":633:639   */\n  dup2\n    /* \"#utility.yul\":627:640   */\n  mload\n    /* \"#utility.yul\":618:640   */\n  swap1\n  pop\n    /* \"#utility.yul\":649:682   */\n  tag_35\n    /* \"#utility.yul\":676:681   */\n  dup2\n    /* \"#utility.yul\":649:682   */\n  tag_23\n  jump\t// in\ntag_35:\n    /* \"#utility.yul\":545:688   */\n  swap3\n  swap2\n  pop\n  pop\n  jump\t// out\n    /* \"#utility.yul\":694:1828   */\ntag_3:\n    /* \"#utility.yul\":809:815   */\n  0x00\n    /* \"#utility.yul\":817:823   */\n  dup1\n    /* \"#utility.yul\":825:831   */\n  0x00\n    /* \"#utility.yul\":833:839   */\n  dup1\n    /* \"#utility.yul\":841:847   */\n  0x00\n    /* \"#utility.yul\":849:855   */\n  dup1\n    /* \"#utility.yul\":898:901   */\n  0xc0\n    /* \"#utility.yul\":886:895   */\n  dup8\n    /* \"#utility.yul\":877:884   */\n  dup10\n    /* \"#utility.yul\":873:896   */\n  sub\n    /* \"#utility.yul\":869:902   */\n  slt\n    /* \"#utility.yul\":866:986   */\n  iszero\n  tag_37\n  jumpi\n    /* \"#utility.yul\":905:984   */\n  tag_38\n  tag_20\n  jump\t// in\ntag_38:\n    /* \"#utility.yul\":866:986   */\ntag_37:\n    /* \"#utility.yul\":1025:1026   */\n  0x00\n    /* \"#utility.yul\":1050:1114   */\n  tag_39\n    /* \"#utility.yul\":1106:1113   */\n  dup10\n    /* \"#utility.yul\":1097:1103   */\n  dup3\n    /* \"#utility.yul\":1086:1095   */\n  dup11\n    /* \"#utility.yul\":1082:1104   */\n  add\n    /* \"#utility.yul\":1050:1114   */\n  tag_24\n  jump\t// in\ntag_39:\n    /* \"#utility.yul\":1040:1114   */\n  swap7\n  pop\n    /* \"#utility.yul\":996:1124   */\n  pop\n    /* \"#utility.yul\":1163:1165   */\n  0x20\n    /* \"#utility.yul\":1189:1253   */\n  tag_40\n    /* \"#utility.yul\":1245:1252   */\n  dup10\n    /* \"#utility.yul\":1236:1242   */\n  dup3\n    /* \"#utility.yul\":1225:1234   */\n  dup11\n    /* \"#utility.yul\":1221:1243   */\n  add\n    /* \"#utility.yul\":1189:1253   */\n  tag_24\n  jump\t// in\ntag_40:\n    /* \"#utility.yul\":1179:1253   */\n  swap6\n  pop\n    /* \"#utility.yul\":1134:1263   */\n  pop\n    /* \"#utility.yul\":1302:1304   */\n  0x40\n    /* \"#utility.yul\":1328:1392   */\n  tag_41\n    /* \"#utility.yul\":1384:1391   */\n  dup10\n    /* \"#utility.yul\":1375:1381   */\n  dup3\n    /* \"#utility.yul\":1364:1373   */\n  dup11\n    /* \"#utility.yul\":1360:1382   */\n  add\n    /* \"#utility.yul\":1328:1392   */\n  tag_24\n  jump\t// in\ntag_41:\n    /* \"#utility.yul\":1318:1392   */\n  swap5\n  pop\n    /* \"#utility.yul\":1273:1402   */\n  pop\n    /* \"#utility.yul\":1441:1443   */\n  0x60\n    /* \"#utility.yul\":1467:1531   */\n  tag_42\n    /* \"#utility.yul\":1523:1530   */\n  dup10\n    /* \"#utility.yul\":1514:1520   */\n  dup3\n    /* \"#utility.yul\":1503:1512   */\n  dup11\n    /* \"#utility.yul\":1499:1521   */\n  add\n    /* \"#utility.yul\":1467:1531   */\n  tag_24\n  jump\t// in\ntag_42:\n    /* \"#utility.yul\":1457:1531   */\n  swap4\n  pop\n    /* \"#utility.yul\":1412:1541   */\n  pop\n    /* \"#utility.yul\":1580:1583   */\n  0x80\n    /* \"#utility.yul\":1607:1671   */\n  tag_43\n    /* \"#utility.yul\":1663:1670   */\n  dup10\n    /* \"#utility.yul\":1654:1660   */\n  dup3\n    /* \"#utility.yul\":1643:1652   */\n  dup11\n    /* \"#utility.yul\":1639:1661   */\n  add\n    /* \"#utility.yul\":1607:1671   */\n  tag_24\n  jump\t// in\ntag_43:\n    /* \"#utility.yul\":1597:1671   */\n  swap3\n  pop\n    /* \"#utility.yul\":1551:1681   */\n  pop\n    /* \"#utility.yul\":1720:1723   */\n  0xa0\n    /* \"#utility.yul\":1747:1811   */\n  tag_44\n    /* \"#utility.yul\":1803:1810   */\n  dup10\n    /* \"#utility.yul\":1794:1800   */\n  dup3\n    /* \"#utility.yul\":1783:1792   */\n  dup11\n    /* \"#utility.yul\":1779:1801   */\n  add\n    /* \"#utility.yul\":1747:1811   */\n  tag_24\n  jump\t// in\ntag_44:\n    /* \"#utility.yul\":1737:1811   */\n  swap2\n  pop\n    /* \"#utility.yul\":1691:1821   */\n  pop\n    /* \"#utility.yul\":694:1828   */\n  swap3\n  swap6\n  pop\n  swap3\n  swap6\n  pop\n  swap3\n  swap6\n  jump\t// out\n    /* \"#utility.yul\":1834:2014   */\ntag_25:\n    /* \"#utility.yul\":1882:1959   */\n  0x4e487b7100000000000000000000000000000000000000000000000000000000\n    /* \"#utility.yul\":1879:1880   */\n  0x00\n    /* \"#utility.yul\":1872:1960   */\n  mstore\n    /* \"#utility.yul\":1979:1983   */\n  0x11\n    /* \"#utility.yul\":1976:1977   */\n  0x04\n    /* \"#utility.yul\":1969:1984   */\n  mstore\n    /* \"#utility.yul\":2003:2007   */\n  0x24\n    /* \"#utility.yul\":2000:2001   */\n  0x00\n    /* \"#utility.yul\":1993:2008   */\n  revert\n    /* \"#utility.yul\":2020:2430   */\ntag_7:\n    /* \"#utility.yul\":2060:2067   */\n  0x00\n    /* \"#utility.yul\":2083:2103   */\n  tag_47\n    /* \"#utility.yul\":2101:2102   */\n  dup3\n    /* \"#utility.yul\":2083:2103   */\n  tag_22\n  jump\t// in\ntag_47:\n    /* \"#utility.yul\":2078:2103   */\n  swap2\n  pop\n    /* \"#utility.yul\":2117:2137   */\n  tag_48\n    /* \"#utility.yul\":2135:2136   */\n  dup4\n    /* \"#utility.yul\":2117:2137   */\n  tag_22\n  jump\t// in\ntag_48:\n    /* \"#utility.yul\":2112:2137   */\n  swap3\n  pop\n    /* \"#utility.yul\":2172:2173   */\n  dup3\n    /* \"#utility.yul\":2169:2170   */\n  dup3\n    /* \"#utility.yul\":2165:2174   */\n  mul\n    /* \"#utility.yul\":2194:2224   */\n  tag_49\n    /* \"#utility.yul\":2212:2223   */\n  dup2\n    /* \"#utility.yul\":2194:2224   */\n  tag_22\n  jump\t// in\ntag_49:\n    /* \"#utility.yul\":2183:2224   */\n  swap2\n  pop\n    /* \"#utility.yul\":2373:2374   */\n  dup3\n    /* \"#utility.yul\":2364:2371   */\n  dup3\n    /* \"#utility.yul\":2360:2375   */\n  div\n    /* \"#utility.yul\":2357:2358   */\n  dup5\n    /* \"#utility.yul\":2354:2376   */\n  eq\n    /* \"#utility.yul\":2334:2335   */\n  dup4\n    /* \"#utility.yul\":2327:2336   */\n  iszero\n    /* \"#utility.yul\":2307:2390   */\n  or\n    /* \"#utility.yul\":2284:2423   */\n  tag_50\n  jumpi\n    /* \"#utility.yul\":2403:2421   */\n  tag_51\n  tag_25\n  jump\t// in\ntag_51:\n    /* \"#utility.yul\":2284:2423   */\ntag_50:\n    /* \"#utility.yul\":2068:2430   */\n  pop\n    /* \"#utility.yul\":2020:2430   */\n  swap3\n  swap2\n  pop\n  pop\n  jump\t// out\n    /* \"#utility.yul\":2436:2627   */\ntag_13:\n    /* \"#utility.yul\":2476:2479   */\n  0x00\n    /* \"#utility.yul\":2495:2515   */\n  tag_53\n    /* \"#utility.yul\":2513:2514   */\n  dup3\n    /* \"#utility.yul\":2495:2515   */\n  tag_22\n  jump\t// in\ntag_53:\n    /* \"#utility.yul\":2490:2515   */\n  swap2\n  pop\n    /* \"#utility.yul\":2529:2549   */\n  tag_54\n    /* \"#utility.yul\":2547:2548   */\n  dup4\n    /* \"#utility.yul\":2529:2549   */\n  tag_22\n  jump\t// in\ntag_54:\n    /* \"#utility.yul\":2524:2549   */\n  swap3\n  pop\n    /* \"#utility.yul\":2572:2573   */\n  dup3\n    /* \"#utility.yul\":2569:2570   */\n  dup3\n    /* \"#utility.yul\":2565:2574   */\n  add\n    /* \"#utility.yul\":2558:2574   */\n  swap1\n  pop\n    /* \"#utility.yul\":2593:2596   */\n  dup1\n    /* \"#utility.yul\":2590:2591   */\n  dup3\n    /* \"#utility.yul\":2587:2597   */\n  gt\n    /* \"#utility.yul\":2584:2620   */\n  iszero\n  tag_55\n  jumpi\n    /* \"#utility.yul\":2600:2618   */\n  tag_56\n  tag_25\n  jump\t// in\ntag_56:\n    /* \"#utility.yul\":2584:2620   */\ntag_55:\n    /* \"#utility.yul\":2436:2627   */\n  swap3\n  swap2\n  pop\n  pop\n  jump\t// out\n    /* \"contracts/Fundraising.sol\":61:2019  contract Fundraising {... */\ntag_18:\n  dataSize(sub_0)\n  dup1\n  dataOffset(sub_0)\n  0x00\n  codecopy\n  0x00\n  return\nstop\n\nsub_0: assembly {\n        /* \"contracts/Fundraising.sol\":61:2019  contract Fundraising {... */\n      mstore(0x40, 0x80)\n      jumpi(tag_1, lt(calldatasize, 0x04))\n      shr(0xe0, calldataload(0x00))\n      dup1\n      0x953b8fb8\n      gt\n      tag_11\n      jumpi\n      dup1\n      0x953b8fb8\n      eq\n      tag_7\n      jumpi\n      dup1\n      0xcc6cb19a\n      eq\n      tag_8\n      jumpi\n      dup1\n      0xce1b088a\n      eq\n      tag_9\n      jumpi\n      dup1\n      0xe914fa12\n      eq\n      tag_10\n      jumpi\n      jump(tag_2)\n    tag_11:\n      dup1\n      0x4bf71729\n      eq\n      tag_3\n      jumpi\n      dup1\n      0x590e1ae3\n      eq\n      tag_4\n      jumpi\n      dup1\n      0x5958611e\n      eq\n      tag_5\n      jumpi\n      dup1\n      0x8da5cb5b\n      eq\n      tag_6\n      jumpi\n      jump(tag_2)\n    tag_1:\n      jumpi(tag_2, calldatasize)\n        /* \"contracts/Fundraising.sol\":741:751  finishTime */\n      sload(0x04)\n        /* \"contracts/Fundraising.sol\":723:738  block.timestamp */\n      timestamp\n        /* \"contracts/Fundraising.sol\":723:751  block.timestamp < finishTime */\n      lt\n        /* \"contracts/Fundraising.sol\":715:776  require(block.timestamp < finishTime, \"This funding is over\") */\n      tag_14\n      jumpi\n      mload(0x40)\n      0x08c379a000000000000000000000000000000000000000000000000000000000\n      dup2\n      mstore\n      0x04\n      add\n      tag_15\n      swap1\n      tag_16\n      jump\t// in\n    tag_15:\n      mload(0x40)\n      dup1\n      swap2\n      sub\n      swap1\n      revert\n    tag_14:\n        /* \"contracts/Fundraising.sol\":808:817  msg.value */\n      callvalue\n        /* \"contracts/Fundraising.sol\":783:792  donations */\n      0x02\n        /* \"contracts/Fundraising.sol\":783:804  donations[msg.sender] */\n      0x00\n        /* \"contracts/Fundraising.sol\":793:803  msg.sender */\n      caller\n        /* \"contracts/Fundraising.sol\":783:804  donations[msg.sender] */\n      0xffffffffffffffffffffffffffffffffffffffff\n      and\n      0xffffffffffffffffffffffffffffffffffffffff\n      and\n      dup2\n      mstore\n      0x20\n      add\n      swap1\n      dup2\n      mstore\n      0x20\n      add\n      0x00\n      keccak256\n      0x00\n        /* \"contracts/Fundraising.sol\":783:817  donations[msg.sender] += msg.value */\n      dup3\n      dup3\n      sload\n      tag_17\n      swap2\n      swap1\n      tag_18\n      jump\t// in\n    tag_17:\n      swap3\n      pop\n      pop\n      dup2\n      swap1\n      sstore\n      pop\n        /* \"contracts/Fundraising.sol\":840:849  msg.value */\n      callvalue\n        /* \"contracts/Fundraising.sol\":824:836  raisedAmount */\n      0x03\n      0x00\n        /* \"contracts/Fundraising.sol\":824:849  raisedAmount += msg.value */\n      dup3\n      dup3\n      sload\n      tag_19\n      swap2\n      swap1\n      tag_18\n      jump\t// in\n    tag_19:\n      swap3\n      pop\n      pop\n      dup2\n      swap1\n      sstore\n      stop\n        /* \"contracts/Fundraising.sol\":61:2019  contract Fundraising {... */\n    tag_2:\n      0x00\n      dup1\n      revert\n        /* \"contracts/Fundraising.sol\":1923:2016  function getDonation() external view returns (uint) {... */\n    tag_3:\n      callvalue\n      dup1\n      iszero\n      tag_20\n      jumpi\n      0x00\n      dup1\n      revert\n    tag_20:\n      pop\n      tag_21\n      tag_22\n      jump\t// in\n    tag_21:\n      mload(0x40)\n      tag_23\n      swap2\n      swap1\n      tag_24\n      jump\t// in\n    tag_23:\n      mload(0x40)\n      dup1\n      swap2\n      sub\n      swap1\n      return\n        /* \"contracts/Fundraising.sol\":1200:1597  function refund() external payable {... */\n    tag_4:\n      tag_25\n      tag_26\n      jump\t// in\n    tag_25:\n      stop\n        /* \"contracts/Fundraising.sol\":209:231  uint public finishTime */\n    tag_5:\n      callvalue\n      dup1\n      iszero\n      tag_27\n      jumpi\n      0x00\n      dup1\n      revert\n    tag_27:\n      pop\n      tag_28\n      tag_29\n      jump\t// in\n    tag_28:\n      mload(0x40)\n      tag_30\n      swap2\n      swap1\n      tag_24\n      jump\t// in\n    tag_30:\n      mload(0x40)\n      dup1\n      swap2\n      sub\n      swap1\n      return\n        /* \"contracts/Fundraising.sol\":116:136  address public owner */\n    tag_6:\n      callvalue\n      dup1\n      iszero\n      tag_31\n      jumpi\n      0x00\n      dup1\n      revert\n    tag_31:\n      pop\n      tag_32\n      tag_33\n      jump\t// in\n    tag_32:\n      mload(0x40)\n      tag_34\n      swap2\n      swap1\n      tag_35\n      jump\t// in\n    tag_34:\n      mload(0x40)\n      dup1\n      swap2\n      sub\n      swap1\n      return\n        /* \"contracts/Fundraising.sol\":87:111  uint public targetAmount */\n    tag_7:\n      callvalue\n      dup1\n      iszero\n      tag_36\n      jumpi\n      0x00\n      dup1\n      revert\n    tag_36:\n      pop\n      tag_37\n      tag_38\n      jump\t// in\n    tag_37:\n      mload(0x40)\n      tag_39\n      swap2\n      swap1\n      tag_24\n      jump\t// in\n    tag_39:\n      mload(0x40)\n      dup1\n      swap2\n      sub\n      swap1\n      return\n        /* \"contracts/Fundraising.sol\":141:182  mapping(address => uint) public donations */\n    tag_8:\n      callvalue\n      dup1\n      iszero\n      tag_40\n      jumpi\n      0x00\n      dup1\n      revert\n    tag_40:\n      pop\n      tag_41\n      0x04\n      dup1\n      calldatasize\n      sub\n      dup2\n      add\n      swap1\n      tag_42\n      swap2\n      swap1\n      tag_43\n      jump\t// in\n    tag_42:\n      tag_44\n      jump\t// in\n    tag_41:\n      mload(0x40)\n      tag_45\n      swap2\n      swap1\n      tag_24\n      jump\t// in\n    tag_45:\n      mload(0x40)\n      dup1\n      swap2\n      sub\n      swap1\n      return\n        /* \"contracts/Fundraising.sol\":861:1194  function withdrawDonations() external payable {... */\n    tag_9:\n      tag_46\n      tag_47\n      jump\t// in\n    tag_46:\n      stop\n        /* \"contracts/Fundraising.sol\":1603:1917  function cancelFund() external payable {... */\n    tag_10:\n      tag_48\n      tag_49\n      jump\t// in\n    tag_48:\n      stop\n        /* \"contracts/Fundraising.sol\":1923:2016  function getDonation() external view returns (uint) {... */\n    tag_22:\n        /* \"contracts/Fundraising.sol\":1969:1973  uint */\n      0x00\n        /* \"contracts/Fundraising.sol\":1989:1998  donations */\n      0x02\n        /* \"contracts/Fundraising.sol\":1989:2010  donations[msg.sender] */\n      0x00\n        /* \"contracts/Fundraising.sol\":1999:2009  msg.sender */\n      caller\n        /* \"contracts/Fundraising.sol\":1989:2010  donations[msg.sender] */\n      0xffffffffffffffffffffffffffffffffffffffff\n      and\n      0xffffffffffffffffffffffffffffffffffffffff\n      and\n      dup2\n      mstore\n      0x20\n      add\n      swap1\n      dup2\n      mstore\n      0x20\n      add\n      0x00\n      keccak256\n      sload\n        /* \"contracts/Fundraising.sol\":1982:2010  return donations[msg.sender] */\n      swap1\n      pop\n        /* \"contracts/Fundraising.sol\":1923:2016  function getDonation() external view returns (uint) {... */\n      swap1\n      jump\t// out\n        /* \"contracts/Fundraising.sol\":1200:1597  function refund() external payable {... */\n    tag_26:\n        /* \"contracts/Fundraising.sol\":1268:1278  finishTime */\n      sload(0x04)\n        /* \"contracts/Fundraising.sol\":1250:1265  block.timestamp */\n      timestamp\n        /* \"contracts/Fundraising.sol\":1250:1278  block.timestamp > finishTime */\n      gt\n        /* \"contracts/Fundraising.sol\":1242:1310  require(block.timestamp > finishTime, \"The funding is not over yet\") */\n      tag_52\n      jumpi\n      mload(0x40)\n      0x08c379a000000000000000000000000000000000000000000000000000000000\n      dup2\n      mstore\n      0x04\n      add\n      tag_53\n      swap1\n      tag_54\n      jump\t// in\n    tag_53:\n      mload(0x40)\n      dup1\n      swap2\n      sub\n      swap1\n      revert\n    tag_52:\n        /* \"contracts/Fundraising.sol\":1340:1352  targetAmount */\n      sload(0x00)\n        /* \"contracts/Fundraising.sol\":1325:1337  raisedAmount */\n      sload(0x03)\n        /* \"contracts/Fundraising.sol\":1325:1352  raisedAmount < targetAmount */\n      lt\n        /* \"contracts/Fundraising.sol\":1317:1390  require(raisedAmount < targetAmount, \"The funding didn't reach the goal\") */\n      tag_55\n      jumpi\n      mload(0x40)\n      0x08c379a000000000000000000000000000000000000000000000000000000000\n      dup2\n      mstore\n      0x04\n      add\n      tag_56\n      swap1\n      tag_57\n      jump\t// in\n    tag_56:\n      mload(0x40)\n      dup1\n      swap2\n      sub\n      swap1\n      revert\n    tag_55:\n        /* \"contracts/Fundraising.sol\":1429:1430  0 */\n      0x00\n        /* \"contracts/Fundraising.sol\":1405:1414  donations */\n      0x02\n        /* \"contracts/Fundraising.sol\":1405:1426  donations[msg.sender] */\n      0x00\n        /* \"contracts/Fundraising.sol\":1415:1425  msg.sender */\n      caller\n        /* \"contracts/Fundraising.sol\":1405:1426  donations[msg.sender] */\n      0xffffffffffffffffffffffffffffffffffffffff\n      and\n      0xffffffffffffffffffffffffffffffffffffffff\n      and\n      dup2\n      mstore\n      0x20\n      add\n      swap1\n      dup2\n      mstore\n      0x20\n      add\n      0x00\n      keccak256\n      sload\n        /* \"contracts/Fundraising.sol\":1405:1430  donations[msg.sender] > 0 */\n      gt\n        /* \"contracts/Fundraising.sol\":1397:1468  require(donations[msg.sender] > 0, \"You didn't donate to this funding\") */\n      tag_58\n      jumpi\n      mload(0x40)\n      0x08c379a000000000000000000000000000000000000000000000000000000000\n      dup2\n      mstore\n      0x04\n      add\n      tag_59\n      swap1\n      tag_60\n      jump\t// in\n    tag_59:\n      mload(0x40)\n      dup1\n      swap2\n      sub\n      swap1\n      revert\n    tag_58:\n        /* \"contracts/Fundraising.sol\":1477:1490  uint toRefund */\n      0x00\n        /* \"contracts/Fundraising.sol\":1493:1502  donations */\n      0x02\n        /* \"contracts/Fundraising.sol\":1493:1514  donations[msg.sender] */\n      0x00\n        /* \"contracts/Fundraising.sol\":1503:1513  msg.sender */\n      caller\n        /* \"contracts/Fundraising.sol\":1493:1514  donations[msg.sender] */\n      0xffffffffffffffffffffffffffffffffffffffff\n      and\n      0xffffffffffffffffffffffffffffffffffffffff\n      and\n      dup2\n      mstore\n      0x20\n      add\n      swap1\n      dup2\n      mstore\n      0x20\n      add\n      0x00\n      keccak256\n      sload\n        /* \"contracts/Fundraising.sol\":1477:1514  uint toRefund = donations[msg.sender] */\n      swap1\n      pop\n        /* \"contracts/Fundraising.sol\":1545:1546  0 */\n      0x00\n        /* \"contracts/Fundraising.sol\":1521:1530  donations */\n      0x02\n        /* \"contracts/Fundraising.sol\":1521:1542  donations[msg.sender] */\n      0x00\n        /* \"contracts/Fundraising.sol\":1531:1541  msg.sender */\n      caller\n        /* \"contracts/Fundraising.sol\":1521:1542  donations[msg.sender] */\n      0xffffffffffffffffffffffffffffffffffffffff\n      and\n      0xffffffffffffffffffffffffffffffffffffffff\n      and\n      dup2\n      mstore\n      0x20\n      add\n      swap1\n      dup2\n      mstore\n      0x20\n      add\n      0x00\n      keccak256\n        /* \"contracts/Fundraising.sol\":1521:1546  donations[msg.sender] = 0 */\n      dup2\n      swap1\n      sstore\n      pop\n        /* \"contracts/Fundraising.sol\":1561:1571  msg.sender */\n      caller\n        /* \"contracts/Fundraising.sol\":1553:1581  payable(msg.sender).transfer */\n      0xffffffffffffffffffffffffffffffffffffffff\n      and\n        /* \"contracts/Fundraising.sol\":1553:1591  payable(msg.sender).transfer(toRefund) */\n      0x08fc\n        /* \"contracts/Fundraising.sol\":1582:1590  toRefund */\n      dup3\n        /* \"contracts/Fundraising.sol\":1553:1591  payable(msg.sender).transfer(toRefund) */\n      swap1\n      dup2\n      iszero\n      mul\n      swap1\n      mload(0x40)\n      0x00\n      mload(0x40)\n      dup1\n      dup4\n      sub\n      dup2\n      dup6\n      dup9\n      dup9\n      call\n      swap4\n      pop\n      pop\n      pop\n      pop\n      iszero\n      dup1\n      iszero\n      tag_62\n      jumpi\n      returndatasize\n      0x00\n      dup1\n      returndatacopy\n      revert(0x00, returndatasize)\n    tag_62:\n      pop\n        /* \"contracts/Fundraising.sol\":1235:1597  {... */\n      pop\n        /* \"contracts/Fundraising.sol\":1200:1597  function refund() external payable {... */\n      jump\t// out\n        /* \"contracts/Fundraising.sol\":209:231  uint public finishTime */\n    tag_29:\n      sload(0x04)\n      dup2\n      jump\t// out\n        /* \"contracts/Fundraising.sol\":116:136  address public owner */\n    tag_33:\n      0x01\n      0x00\n      swap1\n      sload\n      swap1\n      0x0100\n      exp\n      swap1\n      div\n      0xffffffffffffffffffffffffffffffffffffffff\n      and\n      dup2\n      jump\t// out\n        /* \"contracts/Fundraising.sol\":87:111  uint public targetAmount */\n    tag_38:\n      sload(0x00)\n      dup2\n      jump\t// out\n        /* \"contracts/Fundraising.sol\":141:182  mapping(address => uint) public donations */\n    tag_44:\n      mstore(0x20, 0x02)\n      dup1\n      0x00\n      mstore\n      keccak256(0x00, 0x40)\n      0x00\n      swap2\n      pop\n      swap1\n      pop\n      sload\n      dup2\n      jump\t// out\n        /* \"contracts/Fundraising.sol\":861:1194  function withdrawDonations() external payable {... */\n    tag_47:\n        /* \"contracts/Fundraising.sol\":936:941  owner */\n      0x01\n      0x00\n      swap1\n      sload\n      swap1\n      0x0100\n      exp\n      swap1\n      div\n      0xffffffffffffffffffffffffffffffffffffffff\n      and\n        /* \"contracts/Fundraising.sol\":922:941  msg.sender == owner */\n      0xffffffffffffffffffffffffffffffffffffffff\n      and\n        /* \"contracts/Fundraising.sol\":922:932  msg.sender */\n      caller\n        /* \"contracts/Fundraising.sol\":922:941  msg.sender == owner */\n      0xffffffffffffffffffffffffffffffffffffffff\n      and\n      eq\n        /* \"contracts/Fundraising.sol\":914:986  require(msg.sender == owner, \"Funds will only be released to the owner\") */\n      tag_64\n      jumpi\n      mload(0x40)\n      0x08c379a000000000000000000000000000000000000000000000000000000000\n      dup2\n      mstore\n      0x04\n      add\n      tag_65\n      swap1\n      tag_66\n      jump\t// in\n    tag_65:\n      mload(0x40)\n      dup1\n      swap2\n      sub\n      swap1\n      revert\n    tag_64:\n        /* \"contracts/Fundraising.sol\":1017:1029  targetAmount */\n      sload(0x00)\n        /* \"contracts/Fundraising.sol\":1001:1013  raisedAmount */\n      sload(0x03)\n        /* \"contracts/Fundraising.sol\":1001:1029  raisedAmount >= targetAmount */\n      lt\n      iszero\n        /* \"contracts/Fundraising.sol\":993:1067  require(raisedAmount >= targetAmount, \"The funding didn't reach the goal\") */\n      tag_67\n      jumpi\n      mload(0x40)\n      0x08c379a000000000000000000000000000000000000000000000000000000000\n      dup2\n      mstore\n      0x04\n      add\n      tag_68\n      swap1\n      tag_57\n      jump\t// in\n    tag_68:\n      mload(0x40)\n      dup1\n      swap2\n      sub\n      swap1\n      revert\n    tag_67:\n        /* \"contracts/Fundraising.sol\":1100:1110  finishTime */\n      sload(0x04)\n        /* \"contracts/Fundraising.sol\":1082:1097  block.timestamp */\n      timestamp\n        /* \"contracts/Fundraising.sol\":1082:1110  block.timestamp > finishTime */\n      gt\n        /* \"contracts/Fundraising.sol\":1074:1142  require(block.timestamp > finishTime, \"The funding is not over yet\") */\n      tag_69\n      jumpi\n      mload(0x40)\n      0x08c379a000000000000000000000000000000000000000000000000000000000\n      dup2\n      mstore\n      0x04\n      add\n      tag_70\n      swap1\n      tag_54\n      jump\t// in\n    tag_70:\n      mload(0x40)\n      dup1\n      swap2\n      sub\n      swap1\n      revert\n    tag_69:\n        /* \"contracts/Fundraising.sol\":1159:1164  owner */\n      0x01\n      0x00\n      swap1\n      sload\n      swap1\n      0x0100\n      exp\n      swap1\n      div\n      0xffffffffffffffffffffffffffffffffffffffff\n      and\n        /* \"contracts/Fundraising.sol\":1151:1174  payable(owner).transfer */\n      0xffffffffffffffffffffffffffffffffffffffff\n      and\n        /* \"contracts/Fundraising.sol\":1151:1188  payable(owner).transfer(raisedAmount) */\n      0x08fc\n        /* \"contracts/Fundraising.sol\":1175:1187  raisedAmount */\n      sload(0x03)\n        /* \"contracts/Fundraising.sol\":1151:1188  payable(owner).transfer(raisedAmount) */\n      swap1\n      dup2\n      iszero\n      mul\n      swap1\n      mload(0x40)\n      0x00\n      mload(0x40)\n      dup1\n      dup4\n      sub\n      dup2\n      dup6\n      dup9\n      dup9\n      call\n      swap4\n      pop\n      pop\n      pop\n      pop\n      iszero\n      dup1\n      iszero\n      tag_72\n      jumpi\n      returndatasize\n      0x00\n      dup1\n      returndatacopy\n      revert(0x00, returndatasize)\n    tag_72:\n      pop\n        /* \"contracts/Fundraising.sol\":861:1194  function withdrawDonations() external payable {... */\n      jump\t// out\n        /* \"contracts/Fundraising.sol\":1603:1917  function cancelFund() external payable {... */\n    tag_49:\n        /* \"contracts/Fundraising.sol\":1675:1685  finishTime */\n      sload(0x04)\n        /* \"contracts/Fundraising.sol\":1657:1672  block.timestamp */\n      timestamp\n        /* \"contracts/Fundraising.sol\":1657:1685  block.timestamp < finishTime */\n      lt\n        /* \"contracts/Fundraising.sol\":1649:1710  require(block.timestamp < finishTime, \"The funding is over \") */\n      tag_74\n      jumpi\n      mload(0x40)\n      0x08c379a000000000000000000000000000000000000000000000000000000000\n      dup2\n      mstore\n      0x04\n      add\n      tag_75\n      swap1\n      tag_76\n      jump\t// in\n    tag_75:\n      mload(0x40)\n      dup1\n      swap2\n      sub\n      swap1\n      revert\n    tag_74:\n        /* \"contracts/Fundraising.sol\":1749:1750  0 */\n      0x00\n        /* \"contracts/Fundraising.sol\":1725:1734  donations */\n      0x02\n        /* \"contracts/Fundraising.sol\":1725:1746  donations[msg.sender] */\n      0x00\n        /* \"contracts/Fundraising.sol\":1735:1745  msg.sender */\n      caller\n        /* \"contracts/Fundraising.sol\":1725:1746  donations[msg.sender] */\n      0xffffffffffffffffffffffffffffffffffffffff\n      and\n      0xffffffffffffffffffffffffffffffffffffffff\n      and\n      dup2\n      mstore\n      0x20\n      add\n      swap1\n      dup2\n      mstore\n      0x20\n      add\n      0x00\n      keccak256\n      sload\n        /* \"contracts/Fundraising.sol\":1725:1750  donations[msg.sender] > 0 */\n      gt\n        /* \"contracts/Fundraising.sol\":1717:1788  require(donations[msg.sender] > 0, \"You didn't donate to this funding\") */\n      tag_77\n      jumpi\n      mload(0x40)\n      0x08c379a000000000000000000000000000000000000000000000000000000000\n      dup2\n      mstore\n      0x04\n      add\n      tag_78\n      swap1\n      tag_60\n      jump\t// in\n    tag_78:\n      mload(0x40)\n      dup1\n      swap2\n      sub\n      swap1\n      revert\n    tag_77:\n        /* \"contracts/Fundraising.sol\":1797:1810  uint toRefund */\n      0x00\n        /* \"contracts/Fundraising.sol\":1813:1822  donations */\n      0x02\n        /* \"contracts/Fundraising.sol\":1813:1834  donations[msg.sender] */\n      0x00\n        /* \"contracts/Fundraising.sol\":1823:1833  msg.sender */\n      caller\n        /* \"contracts/Fundraising.sol\":1813:1834  donations[msg.sender] */\n      0xffffffffffffffffffffffffffffffffffffffff\n      and\n      0xffffffffffffffffffffffffffffffffffffffff\n      and\n      dup2\n      mstore\n      0x20\n      add\n      swap1\n      dup2\n      mstore\n      0x20\n      add\n      0x00\n      keccak256\n      sload\n        /* \"contracts/Fundraising.sol\":1797:1834  uint toRefund = donations[msg.sender] */\n      swap1\n      pop\n        /* \"contracts/Fundraising.sol\":1865:1866  0 */\n      0x00\n        /* \"contracts/Fundraising.sol\":1841:1850  donations */\n      0x02\n        /* \"contracts/Fundraising.sol\":1841:1862  donations[msg.sender] */\n      0x00\n        /* \"contracts/Fundraising.sol\":1851:1861  msg.sender */\n      caller\n        /* \"contracts/Fundraising.sol\":1841:1862  donations[msg.sender] */\n      0xffffffffffffffffffffffffffffffffffffffff\n      and\n      0xffffffffffffffffffffffffffffffffffffffff\n      and\n      dup2\n      mstore\n      0x20\n      add\n      swap1\n      dup2\n      mstore\n      0x20\n      add\n      0x00\n      keccak256\n        /* \"contracts/Fundraising.sol\":1841:1866  donations[msg.sender] = 0 */\n      dup2\n      swap1\n      sstore\n      pop\n        /* \"contracts/Fundraising.sol\":1881:1891  msg.sender */\n      caller\n        /* \"contracts/Fundraising.sol\":1873:1901  payable(msg.sender).transfer */\n      0xffffffffffffffffffffffffffffffffffffffff\n      and\n        /* \"contracts/Fundraising.sol\":1873:1911  payable(msg.sender).transfer(toRefund) */\n      0x08fc\n        /* \"contracts/Fundraising.sol\":1902:1910  toRefund */\n      dup3\n        /* \"contracts/Fundraising.sol\":1873:1911  payable(msg.sender).transfer(toRefund) */\n      swap1\n      dup2\n      iszero\n      mul\n      swap1\n      mload(0x40)\n      0x00\n      mload(0x40)\n      dup1\n      dup4\n      sub\n      dup2\n      dup6\n      dup9\n      dup9\n      call\n      swap4\n      pop\n      pop\n      pop\n      pop\n      iszero\n      dup1\n      iszero\n      tag_80\n      jumpi\n      returndatasize\n      0x00\n      dup1\n      returndatacopy\n      revert(0x00, returndatasize)\n    tag_80:\n      pop\n        /* \"contracts/Fundraising.sol\":1642:1917  {... */\n      pop\n        /* \"contracts/Fundraising.sol\":1603:1917  function cancelFund() external payable {... */\n      jump\t// out\n        /* \"#utility.yul\":7:176   */\n    tag_81:\n        /* \"#utility.yul\":91:102   */\n      0x00\n        /* \"#utility.yul\":125:131   */\n      dup3\n        /* \"#utility.yul\":120:123   */\n      dup3\n        /* \"#utility.yul\":113:132   */\n      mstore\n        /* \"#utility.yul\":165:169   */\n      0x20\n        /* \"#utility.yul\":160:163   */\n      dup3\n        /* \"#utility.yul\":156:170   */\n      add\n        /* \"#utility.yul\":141:170   */\n      swap1\n      pop\n        /* \"#utility.yul\":7:176   */\n      swap3\n      swap2\n      pop\n      pop\n      jump\t// out\n        /* \"#utility.yul\":182:352   */\n    tag_82:\n        /* \"#utility.yul\":322:344   */\n      0x546869732066756e64696e67206973206f766572000000000000000000000000\n        /* \"#utility.yul\":318:319   */\n      0x00\n        /* \"#utility.yul\":310:316   */\n      dup3\n        /* \"#utility.yul\":306:320   */\n      add\n        /* \"#utility.yul\":299:345   */\n      mstore\n        /* \"#utility.yul\":182:352   */\n      pop\n      jump\t// out\n        /* \"#utility.yul\":358:724   */\n    tag_83:\n        /* \"#utility.yul\":500:503   */\n      0x00\n        /* \"#utility.yul\":521:588   */\n      tag_109\n        /* \"#utility.yul\":585:587   */\n      0x14\n        /* \"#utility.yul\":580:583   */\n      dup4\n        /* \"#utility.yul\":521:588   */\n      tag_81\n      jump\t// in\n    tag_109:\n        /* \"#utility.yul\":514:588   */\n      swap2\n      pop\n        /* \"#utility.yul\":597:690   */\n      tag_110\n        /* \"#utility.yul\":686:689   */\n      dup3\n        /* \"#utility.yul\":597:690   */\n      tag_82\n      jump\t// in\n    tag_110:\n        /* \"#utility.yul\":715:717   */\n      0x20\n        /* \"#utility.yul\":710:713   */\n      dup3\n        /* \"#utility.yul\":706:718   */\n      add\n        /* \"#utility.yul\":699:718   */\n      swap1\n      pop\n        /* \"#utility.yul\":358:724   */\n      swap2\n      swap1\n      pop\n      jump\t// out\n        /* \"#utility.yul\":730:1149   */\n    tag_16:\n        /* \"#utility.yul\":896:900   */\n      0x00\n        /* \"#utility.yul\":934:936   */\n      0x20\n        /* \"#utility.yul\":923:932   */\n      dup3\n        /* \"#utility.yul\":919:937   */\n      add\n        /* \"#utility.yul\":911:937   */\n      swap1\n      pop\n        /* \"#utility.yul\":983:992   */\n      dup2\n        /* \"#utility.yul\":977:981   */\n      dup2\n        /* \"#utility.yul\":973:993   */\n      sub\n        /* \"#utility.yul\":969:970   */\n      0x00\n        /* \"#utility.yul\":958:967   */\n      dup4\n        /* \"#utility.yul\":954:971   */\n      add\n        /* \"#utility.yul\":947:994   */\n      mstore\n        /* \"#utility.yul\":1011:1142   */\n      tag_112\n        /* \"#utility.yul\":1137:1141   */\n      dup2\n        /* \"#utility.yul\":1011:1142   */\n      tag_83\n      jump\t// in\n    tag_112:\n        /* \"#utility.yul\":1003:1142   */\n      swap1\n      pop\n        /* \"#utility.yul\":730:1149   */\n      swap2\n      swap1\n      pop\n      jump\t// out\n        /* \"#utility.yul\":1155:1232   */\n    tag_84:\n        /* \"#utility.yul\":1192:1199   */\n      0x00\n        /* \"#utility.yul\":1221:1226   */\n      dup2\n        /* \"#utility.yul\":1210:1226   */\n      swap1\n      pop\n        /* \"#utility.yul\":1155:1232   */\n      swap2\n      swap1\n      pop\n      jump\t// out\n        /* \"#utility.yul\":1238:1418   */\n    tag_85:\n        /* \"#utility.yul\":1286:1363   */\n      0x4e487b7100000000000000000000000000000000000000000000000000000000\n        /* \"#utility.yul\":1283:1284   */\n      0x00\n        /* \"#utility.yul\":1276:1364   */\n      mstore\n        /* \"#utility.yul\":1383:1387   */\n      0x11\n        /* \"#utility.yul\":1380:1381   */\n      0x04\n        /* \"#utility.yul\":1373:1388   */\n      mstore\n        /* \"#utility.yul\":1407:1411   */\n      0x24\n        /* \"#utility.yul\":1404:1405   */\n      0x00\n        /* \"#utility.yul\":1397:1412   */\n      revert\n        /* \"#utility.yul\":1424:1615   */\n    tag_18:\n        /* \"#utility.yul\":1464:1467   */\n      0x00\n        /* \"#utility.yul\":1483:1503   */\n      tag_116\n        /* \"#utility.yul\":1501:1502   */\n      dup3\n        /* \"#utility.yul\":1483:1503   */\n      tag_84\n      jump\t// in\n    tag_116:\n        /* \"#utility.yul\":1478:1503   */\n      swap2\n      pop\n        /* \"#utility.yul\":1517:1537   */\n      tag_117\n        /* \"#utility.yul\":1535:1536   */\n      dup4\n        /* \"#utility.yul\":1517:1537   */\n      tag_84\n      jump\t// in\n    tag_117:\n        /* \"#utility.yul\":1512:1537   */\n      swap3\n      pop\n        /* \"#utility.yul\":1560:1561   */\n      dup3\n        /* \"#utility.yul\":1557:1558   */\n      dup3\n        /* \"#utility.yul\":1553:1562   */\n      add\n        /* \"#utility.yul\":1546:1562   */\n      swap1\n      pop\n        /* \"#utility.yul\":1581:1584   */\n      dup1\n        /* \"#utility.yul\":1578:1579   */\n      dup3\n        /* \"#utility.yul\":1575:1585   */\n      gt\n        /* \"#utility.yul\":1572:1608   */\n      iszero\n      tag_118\n      jumpi\n        /* \"#utility.yul\":1588:1606   */\n      tag_119\n      tag_85\n      jump\t// in\n    tag_119:\n        /* \"#utility.yul\":1572:1608   */\n    tag_118:\n        /* \"#utility.yul\":1424:1615   */\n      swap3\n      swap2\n      pop\n      pop\n      jump\t// out\n        /* \"#utility.yul\":1621:1739   */\n    tag_86:\n        /* \"#utility.yul\":1708:1732   */\n      tag_121\n        /* \"#utility.yul\":1726:1731   */\n      dup2\n        /* \"#utility.yul\":1708:1732   */\n      tag_84\n      jump\t// in\n    tag_121:\n        /* \"#utility.yul\":1703:1706   */\n      dup3\n        /* \"#utility.yul\":1696:1733   */\n      mstore\n        /* \"#utility.yul\":1621:1739   */\n      pop\n      pop\n      jump\t// out\n        /* \"#utility.yul\":1745:1967   */\n    tag_24:\n        /* \"#utility.yul\":1838:1842   */\n      0x00\n        /* \"#utility.yul\":1876:1878   */\n      0x20\n        /* \"#utility.yul\":1865:1874   */\n      dup3\n        /* \"#utility.yul\":1861:1879   */\n      add\n        /* \"#utility.yul\":1853:1879   */\n      swap1\n      pop\n        /* \"#utility.yul\":1889:1960   */\n      tag_123\n        /* \"#utility.yul\":1957:1958   */\n      0x00\n        /* \"#utility.yul\":1946:1955   */\n      dup4\n        /* \"#utility.yul\":1942:1959   */\n      add\n        /* \"#utility.yul\":1933:1939   */\n      dup5\n        /* \"#utility.yul\":1889:1960   */\n      tag_86\n      jump\t// in\n    tag_123:\n        /* \"#utility.yul\":1745:1967   */\n      swap3\n      swap2\n      pop\n      pop\n      jump\t// out\n        /* \"#utility.yul\":1973:2099   */\n    tag_87:\n        /* \"#utility.yul\":2010:2017   */\n      0x00\n        /* \"#utility.yul\":2050:2092   */\n      0xffffffffffffffffffffffffffffffffffffffff\n        /* \"#utility.yul\":2043:2048   */\n      dup3\n        /* \"#utility.yul\":2039:2093   */\n      and\n        /* \"#utility.yul\":2028:2093   */\n      swap1\n      pop\n        /* \"#utility.yul\":1973:2099   */\n      swap2\n      swap1\n      pop\n      jump\t// out\n        /* \"#utility.yul\":2105:2201   */\n    tag_88:\n        /* \"#utility.yul\":2142:2149   */\n      0x00\n        /* \"#utility.yul\":2171:2195   */\n      tag_126\n        /* \"#utility.yul\":2189:2194   */\n      dup3\n        /* \"#utility.yul\":2171:2195   */\n      tag_87\n      jump\t// in\n    tag_126:\n        /* \"#utility.yul\":2160:2195   */\n      swap1\n      pop\n        /* \"#utility.yul\":2105:2201   */\n      swap2\n      swap1\n      pop\n      jump\t// out\n        /* \"#utility.yul\":2207:2325   */\n    tag_89:\n        /* \"#utility.yul\":2294:2318   */\n      tag_128\n        /* \"#utility.yul\":2312:2317   */\n      dup2\n        /* \"#utility.yul\":2294:2318   */\n      tag_88\n      jump\t// in\n    tag_128:\n        /* \"#utility.yul\":2289:2292   */\n      dup3\n        /* \"#utility.yul\":2282:2319   */\n      mstore\n        /* \"#utility.yul\":2207:2325   */\n      pop\n      pop\n      jump\t// out\n        /* \"#utility.yul\":2331:2553   */\n    tag_35:\n        /* \"#utility.yul\":2424:2428   */\n      0x00\n        /* \"#utility.yul\":2462:2464   */\n      0x20\n        /* \"#utility.yul\":2451:2460   */\n      dup3\n        /* \"#utility.yul\":2447:2465   */\n      add\n        /* \"#utility.yul\":2439:2465   */\n      swap1\n      pop\n        /* \"#utility.yul\":2475:2546   */\n      tag_130\n        /* \"#utility.yul\":2543:2544   */\n      0x00\n        /* \"#utility.yul\":2532:2541   */\n      dup4\n        /* \"#utility.yul\":2528:2545   */\n      add\n        /* \"#utility.yul\":2519:2525   */\n      dup5\n        /* \"#utility.yul\":2475:2546   */\n      tag_89\n      jump\t// in\n    tag_130:\n        /* \"#utility.yul\":2331:2553   */\n      swap3\n      swap2\n      pop\n      pop\n      jump\t// out\n        /* \"#utility.yul\":2640:2757   */\n    tag_91:\n        /* \"#utility.yul\":2749:2750   */\n      0x00\n        /* \"#utility.yul\":2746:2747   */\n      dup1\n        /* \"#utility.yul\":2739:2751   */\n      revert\n        /* \"#utility.yul\":2886:3008   */\n    tag_93:\n        /* \"#utility.yul\":2959:2983   */\n      tag_135\n        /* \"#utility.yul\":2977:2982   */\n      dup2\n        /* \"#utility.yul\":2959:2983   */\n      tag_88\n      jump\t// in\n    tag_135:\n        /* \"#utility.yul\":2952:2957   */\n      dup2\n        /* \"#utility.yul\":2949:2984   */\n      eq\n        /* \"#utility.yul\":2939:3002   */\n      tag_136\n      jumpi\n        /* \"#utility.yul\":2998:2999   */\n      0x00\n        /* \"#utility.yul\":2995:2996   */\n      dup1\n        /* \"#utility.yul\":2988:3000   */\n      revert\n        /* \"#utility.yul\":2939:3002   */\n    tag_136:\n        /* \"#utility.yul\":2886:3008   */\n      pop\n      jump\t// out\n        /* \"#utility.yul\":3014:3153   */\n    tag_94:\n        /* \"#utility.yul\":3060:3065   */\n      0x00\n        /* \"#utility.yul\":3098:3104   */\n      dup2\n        /* \"#utility.yul\":3085:3105   */\n      calldataload\n        /* \"#utility.yul\":3076:3105   */\n      swap1\n      pop\n        /* \"#utility.yul\":3114:3147   */\n      tag_138\n        /* \"#utility.yul\":3141:3146   */\n      dup2\n        /* \"#utility.yul\":3114:3147   */\n      tag_93\n      jump\t// in\n    tag_138:\n        /* \"#utility.yul\":3014:3153   */\n      swap3\n      swap2\n      pop\n      pop\n      jump\t// out\n        /* \"#utility.yul\":3159:3488   */\n    tag_43:\n        /* \"#utility.yul\":3218:3224   */\n      0x00\n        /* \"#utility.yul\":3267:3269   */\n      0x20\n        /* \"#utility.yul\":3255:3264   */\n      dup3\n        /* \"#utility.yul\":3246:3253   */\n      dup5\n        /* \"#utility.yul\":3242:3265   */\n      sub\n        /* \"#utility.yul\":3238:3270   */\n      slt\n        /* \"#utility.yul\":3235:3354   */\n      iszero\n      tag_140\n      jumpi\n        /* \"#utility.yul\":3273:3352   */\n      tag_141\n      tag_91\n      jump\t// in\n    tag_141:\n        /* \"#utility.yul\":3235:3354   */\n    tag_140:\n        /* \"#utility.yul\":3393:3394   */\n      0x00\n        /* \"#utility.yul\":3418:3471   */\n      tag_142\n        /* \"#utility.yul\":3463:3470   */\n      dup5\n        /* \"#utility.yul\":3454:3460   */\n      dup3\n        /* \"#utility.yul\":3443:3452   */\n      dup6\n        /* \"#utility.yul\":3439:3461   */\n      add\n        /* \"#utility.yul\":3418:3471   */\n      tag_94\n      jump\t// in\n    tag_142:\n        /* \"#utility.yul\":3408:3471   */\n      swap2\n      pop\n        /* \"#utility.yul\":3364:3481   */\n      pop\n        /* \"#utility.yul\":3159:3488   */\n      swap3\n      swap2\n      pop\n      pop\n      jump\t// out\n        /* \"#utility.yul\":3494:3671   */\n    tag_95:\n        /* \"#utility.yul\":3634:3663   */\n      0x5468652066756e64696e67206973206e6f74206f766572207965740000000000\n        /* \"#utility.yul\":3630:3631   */\n      0x00\n        /* \"#utility.yul\":3622:3628   */\n      dup3\n        /* \"#utility.yul\":3618:3632   */\n      add\n        /* \"#utility.yul\":3611:3664   */\n      mstore\n        /* \"#utility.yul\":3494:3671   */\n      pop\n      jump\t// out\n        /* \"#utility.yul\":3677:4043   */\n    tag_96:\n        /* \"#utility.yul\":3819:3822   */\n      0x00\n        /* \"#utility.yul\":3840:3907   */\n      tag_145\n        /* \"#utility.yul\":3904:3906   */\n      0x1b\n        /* \"#utility.yul\":3899:3902   */\n      dup4\n        /* \"#utility.yul\":3840:3907   */\n      tag_81\n      jump\t// in\n    tag_145:\n        /* \"#utility.yul\":3833:3907   */\n      swap2\n      pop\n        /* \"#utility.yul\":3916:4009   */\n      tag_146\n        /* \"#utility.yul\":4005:4008   */\n      dup3\n        /* \"#utility.yul\":3916:4009   */\n      tag_95\n      jump\t// in\n    tag_146:\n        /* \"#utility.yul\":4034:4036   */\n      0x20\n        /* \"#utility.yul\":4029:4032   */\n      dup3\n        /* \"#utility.yul\":4025:4037   */\n      add\n        /* \"#utility.yul\":4018:4037   */\n      swap1\n      pop\n        /* \"#utility.yul\":3677:4043   */\n      swap2\n      swap1\n      pop\n      jump\t// out\n        /* \"#utility.yul\":4049:4468   */\n    tag_54:\n        /* \"#utility.yul\":4215:4219   */\n      0x00\n        /* \"#utility.yul\":4253:4255   */\n      0x20\n        /* \"#utility.yul\":4242:4251   */\n      dup3\n        /* \"#utility.yul\":4238:4256   */\n      add\n        /* \"#utility.yul\":4230:4256   */\n      swap1\n      pop\n        /* \"#utility.yul\":4302:4311   */\n      dup2\n        /* \"#utility.yul\":4296:4300   */\n      dup2\n        /* \"#utility.yul\":4292:4312   */\n      sub\n        /* \"#utility.yul\":4288:4289   */\n      0x00\n        /* \"#utility.yul\":4277:4286   */\n      dup4\n        /* \"#utility.yul\":4273:4290   */\n      add\n        /* \"#utility.yul\":4266:4313   */\n      mstore\n        /* \"#utility.yul\":4330:4461   */\n      tag_148\n        /* \"#utility.yul\":4456:4460   */\n      dup2\n        /* \"#utility.yul\":4330:4461   */\n      tag_96\n      jump\t// in\n    tag_148:\n        /* \"#utility.yul\":4322:4461   */\n      swap1\n      pop\n        /* \"#utility.yul\":4049:4468   */\n      swap2\n      swap1\n      pop\n      jump\t// out\n        /* \"#utility.yul\":4474:4694   */\n    tag_97:\n        /* \"#utility.yul\":4614:4648   */\n      0x5468652066756e64696e67206469646e27742072656163682074686520676f61\n        /* \"#utility.yul\":4610:4611   */\n      0x00\n        /* \"#utility.yul\":4602:4608   */\n      dup3\n        /* \"#utility.yul\":4598:4612   */\n      add\n        /* \"#utility.yul\":4591:4649   */\n      mstore\n        /* \"#utility.yul\":4683:4686   */\n      0x6c00000000000000000000000000000000000000000000000000000000000000\n        /* \"#utility.yul\":4678:4680   */\n      0x20\n        /* \"#utility.yul\":4670:4676   */\n      dup3\n        /* \"#utility.yul\":4666:4681   */\n      add\n        /* \"#utility.yul\":4659:4687   */\n      mstore\n        /* \"#utility.yul\":4474:4694   */\n      pop\n      jump\t// out\n        /* \"#utility.yul\":4700:5066   */\n    tag_98:\n        /* \"#utility.yul\":4842:4845   */\n      0x00\n        /* \"#utility.yul\":4863:4930   */\n      tag_151\n        /* \"#utility.yul\":4927:4929   */\n      0x21\n        /* \"#utility.yul\":4922:4925   */\n      dup4\n        /* \"#utility.yul\":4863:4930   */\n      tag_81\n      jump\t// in\n    tag_151:\n        /* \"#utility.yul\":4856:4930   */\n      swap2\n      pop\n        /* \"#utility.yul\":4939:5032   */\n      tag_152\n        /* \"#utility.yul\":5028:5031   */\n      dup3\n        /* \"#utility.yul\":4939:5032   */\n      tag_97\n      jump\t// in\n    tag_152:\n        /* \"#utility.yul\":5057:5059   */\n      0x40\n        /* \"#utility.yul\":5052:5055   */\n      dup3\n        /* \"#utility.yul\":5048:5060   */\n      add\n        /* \"#utility.yul\":5041:5060   */\n      swap1\n      pop\n        /* \"#utility.yul\":4700:5066   */\n      swap2\n      swap1\n      pop\n      jump\t// out\n        /* \"#utility.yul\":5072:5491   */\n    tag_57:\n        /* \"#utility.yul\":5238:5242   */\n      0x00\n        /* \"#utility.yul\":5276:5278   */\n      0x20\n        /* \"#utility.yul\":5265:5274   */\n      dup3\n        /* \"#utility.yul\":5261:5279   */\n      add\n        /* \"#utility.yul\":5253:5279   */\n      swap1\n      pop\n        /* \"#utility.yul\":5325:5334   */\n      dup2\n        /* \"#utility.yul\":5319:5323   */\n      dup2\n        /* \"#utility.yul\":5315:5335   */\n      sub\n        /* \"#utility.yul\":5311:5312   */\n      0x00\n        /* \"#utility.yul\":5300:5309   */\n      dup4\n        /* \"#utility.yul\":5296:5313   */\n      add\n        /* \"#utility.yul\":5289:5336   */\n      mstore\n        /* \"#utility.yul\":5353:5484   */\n      tag_154\n        /* \"#utility.yul\":5479:5483   */\n      dup2\n        /* \"#utility.yul\":5353:5484   */\n      tag_98\n      jump\t// in\n    tag_154:\n        /* \"#utility.yul\":5345:5484   */\n      swap1\n      pop\n        /* \"#utility.yul\":5072:5491   */\n      swap2\n      swap1\n      pop\n      jump\t// out\n        /* \"#utility.yul\":5497:5717   */\n    tag_99:\n        /* \"#utility.yul\":5637:5671   */\n      0x596f75206469646e277420646f6e61746520746f20746869732066756e64696e\n        /* \"#utility.yul\":5633:5634   */\n      0x00\n        /* \"#utility.yul\":5625:5631   */\n      dup3\n        /* \"#utility.yul\":5621:5635   */\n      add\n        /* \"#utility.yul\":5614:5672   */\n      mstore\n        /* \"#utility.yul\":5706:5709   */\n      0x6700000000000000000000000000000000000000000000000000000000000000\n        /* \"#utility.yul\":5701:5703   */\n      0x20\n        /* \"#utility.yul\":5693:5699   */\n      dup3\n        /* \"#utility.yul\":5689:5704   */\n      add\n        /* \"#utility.yul\":5682:5710   */\n      mstore\n        /* \"#utility.yul\":5497:5717   */\n      pop\n      jump\t// out\n        /* \"#utility.yul\":5723:6089   */\n    tag_100:\n        /* \"#utility.yul\":5865:5868   */\n      0x00\n        /* \"#utility.yul\":5886:5953   */\n      tag_157\n        /* \"#utility.yul\":5950:5952   */\n      0x21\n        /* \"#utility.yul\":5945:5948   */\n      dup4\n        /* \"#utility.yul\":5886:5953   */\n      tag_81\n      jump\t// in\n    tag_157:\n        /* \"#utility.yul\":5879:5953   */\n      swap2\n      pop\n        /* \"#utility.yul\":5962:6055   */\n      tag_158\n        /* \"#utility.yul\":6051:6054   */\n      dup3\n        /* \"#utility.yul\":5962:6055   */\n      tag_99\n      jump\t// in\n    tag_158:\n        /* \"#utility.yul\":6080:6082   */\n      0x40\n        /* \"#utility.yul\":6075:6078   */\n      dup3\n        /* \"#utility.yul\":6071:6083   */\n      add\n        /* \"#utility.yul\":6064:6083   */\n      swap1\n      pop\n        /* \"#utility.yul\":5723:6089   */\n      swap2\n      swap1\n      pop\n      jump\t// out\n        /* \"#utility.yul\":6095:6514   */\n    tag_60:\n        /* \"#utility.yul\":6261:6265   */\n      0x00\n        /* \"#utility.yul\":6299:6301   */\n      0x20\n        /* \"#utility.yul\":6288:6297   */\n      dup3\n        /* \"#utility.yul\":6284:6302   */\n      add\n        /* \"#utility.yul\":6276:6302   */\n      swap1\n      pop\n        /* \"#utility.yul\":6348:6357   */\n      dup2\n        /* \"#utility.yul\":6342:6346   */\n      dup2\n        /* \"#utility.yul\":6338:6358   */\n      sub\n        /* \"#utility.yul\":6334:6335   */\n      0x00\n        /* \"#utility.yul\":6323:6332   */\n      dup4\n        /* \"#utility.yul\":6319:6336   */\n      add\n        /* \"#utility.yul\":6312:6359   */\n      mstore\n        /* \"#utility.yul\":6376:6507   */\n      tag_160\n        /* \"#utility.yul\":6502:6506   */\n      dup2\n        /* \"#utility.yul\":6376:6507   */\n      tag_100\n      jump\t// in\n    tag_160:\n        /* \"#utility.yul\":6368:6507   */\n      swap1\n      pop\n        /* \"#utility.yul\":6095:6514   */\n      swap2\n      swap1\n      pop\n      jump\t// out\n        /* \"#utility.yul\":6520:6747   */\n    tag_101:\n        /* \"#utility.yul\":6660:6694   */\n      0x46756e64732077696c6c206f6e6c792062652072656c656173656420746f2074\n        /* \"#utility.yul\":6656:6657   */\n      0x00\n        /* \"#utility.yul\":6648:6654   */\n      dup3\n        /* \"#utility.yul\":6644:6658   */\n      add\n        /* \"#utility.yul\":6637:6695   */\n      mstore\n        /* \"#utility.yul\":6729:6739   */\n      0x6865206f776e6572000000000000000000000000000000000000000000000000\n        /* \"#utility.yul\":6724:6726   */\n      0x20\n        /* \"#utility.yul\":6716:6722   */\n      dup3\n        /* \"#utility.yul\":6712:6727   */\n      add\n        /* \"#utility.yul\":6705:6740   */\n      mstore\n        /* \"#utility.yul\":6520:6747   */\n      pop\n      jump\t// out\n        /* \"#utility.yul\":6753:7119   */\n    tag_102:\n        /* \"#utility.yul\":6895:6898   */\n      0x00\n        /* \"#utility.yul\":6916:6983   */\n      tag_163\n        /* \"#utility.yul\":6980:6982   */\n      0x28\n        /* \"#utility.yul\":6975:6978   */\n      dup4\n        /* \"#utility.yul\":6916:6983   */\n      tag_81\n      jump\t// in\n    tag_163:\n        /* \"#utility.yul\":6909:6983   */\n      swap2\n      pop\n        /* \"#utility.yul\":6992:7085   */\n      tag_164\n        /* \"#utility.yul\":7081:7084   */\n      dup3\n        /* \"#utility.yul\":6992:7085   */\n      tag_101\n      jump\t// in\n    tag_164:\n        /* \"#utility.yul\":7110:7112   */\n      0x40\n        /* \"#utility.yul\":7105:7108   */\n      dup3\n        /* \"#utility.yul\":7101:7113   */\n      add\n        /* \"#utility.yul\":7094:7113   */\n      swap1\n      pop\n        /* \"#utility.yul\":6753:7119   */\n      swap2\n      swap1\n      pop\n      jump\t// out\n        /* \"#utility.yul\":7125:7544   */\n    tag_66:\n        /* \"#utility.yul\":7291:7295   */\n      0x00\n        /* \"#utility.yul\":7329:7331   */\n      0x20\n        /* \"#utility.yul\":7318:7327   */\n      dup3\n        /* \"#utility.yul\":7314:7332   */\n      add\n        /* \"#utility.yul\":7306:7332   */\n      swap1\n      pop\n        /* \"#utility.yul\":7378:7387   */\n      dup2\n        /* \"#utility.yul\":7372:7376   */\n      dup2\n        /* \"#utility.yul\":7368:7388   */\n      sub\n        /* \"#utility.yul\":7364:7365   */\n      0x00\n        /* \"#utility.yul\":7353:7362   */\n      dup4\n        /* \"#utility.yul\":7349:7366   */\n      add\n        /* \"#utility.yul\":7342:7389   */\n      mstore\n        /* \"#utility.yul\":7406:7537   */\n      tag_166\n        /* \"#utility.yul\":7532:7536   */\n      dup2\n        /* \"#utility.yul\":7406:7537   */\n      tag_102\n      jump\t// in\n    tag_166:\n        /* \"#utility.yul\":7398:7537   */\n      swap1\n      pop\n        /* \"#utility.yul\":7125:7544   */\n      swap2\n      swap1\n      pop\n      jump\t// out\n        /* \"#utility.yul\":7550:7720   */\n    tag_103:\n        /* \"#utility.yul\":7690:7712   */\n      0x5468652066756e64696e67206973206f76657220000000000000000000000000\n        /* \"#utility.yul\":7686:7687   */\n      0x00\n        /* \"#utility.yul\":7678:7684   */\n      dup3\n        /* \"#utility.yul\":7674:7688   */\n      add\n        /* \"#utility.yul\":7667:7713   */\n      mstore\n        /* \"#utility.yul\":7550:7720   */\n      pop\n      jump\t// out\n        /* \"#utility.yul\":7726:8092   */\n    tag_104:\n        /* \"#utility.yul\":7868:7871   */\n      0x00\n        /* \"#utility.yul\":7889:7956   */\n      tag_169\n        /* \"#utility.yul\":7953:7955   */\n      0x14\n        /* \"#utility.yul\":7948:7951   */\n      dup4\n        /* \"#utility.yul\":7889:7956   */\n      tag_81\n      jump\t// in\n    tag_169:\n        /* \"#utility.yul\":7882:7956   */\n      swap2\n      pop\n        /* \"#utility.yul\":7965:8058   */\n      tag_170\n        /* \"#utility.yul\":8054:8057   */\n      dup3\n        /* \"#utility.yul\":7965:8058   */\n      tag_103\n      jump\t// in\n    tag_170:\n        /* \"#utility.yul\":8083:8085   */\n      0x20\n        /* \"#utility.yul\":8078:8081   */\n      dup3\n        /* \"#utility.yul\":8074:8086   */\n      add\n        /* \"#utility.yul\":8067:8086   */\n      swap1\n      pop\n        /* \"#utility.yul\":7726:8092   */\n      swap2\n      swap1\n      pop\n      jump\t// out\n        /* \"#utility.yul\":8098:8517   */\n    tag_76:\n        /* \"#utility.yul\":8264:8268   */\n      0x00\n        /* \"#utility.yul\":8302:8304   */\n      0x20\n        /* \"#utility.yul\":8291:8300   */\n      dup3\n        /* \"#utility.yul\":8287:8305   */\n      add\n        /* \"#utility.yul\":8279:8305   */\n      swap1\n      pop\n        /* \"#utility.yul\":8351:8360   */\n      dup2\n        /* \"#utility.yul\":8345:8349   */\n      dup2\n        /* \"#utility.yul\":8341:8361   */\n      sub\n        /* \"#utility.yul\":8337:8338   */\n      0x00\n        /* \"#utility.yul\":8326:8335   */\n      dup4\n        /* \"#utility.yul\":8322:8339   */\n      add\n        /* \"#utility.yul\":8315:8362   */\n      mstore\n        /* \"#utility.yul\":8379:8510   */\n      tag_172\n        /* \"#utility.yul\":8505:8509   */\n      dup2\n        /* \"#utility.yul\":8379:8510   */\n      tag_104\n      jump\t// in\n    tag_172:\n        /* \"#utility.yul\":8371:8510   */\n      swap1\n      pop\n        /* \"#utility.yul\":8098:8517   */\n      swap2\n      swap1\n      pop\n      jump\t// out\n\n    auxdata: 0xa2646970667358221220d7d6b05fb4ea04e2815bab319bc830ba201ce5bef7c8797c2b12ff6f74798a6564736f6c63430008130033\n}\n",
				"bytecode": {
					"linkReferences": {},
					"object": "60806040523480156200001157600080fd5b5060405162000f2e38038062000f2e833981810160405281019062000037919062000166565b8560008190555033600160006101000a81548173ffffffffffffffffffffffffffffffffffffffff021916908373ffffffffffffffffffffffffffffffffffffffff160217905550600060038190555060018162000096919062000231565b603c83620000a5919062000231565b610e1085620000b5919062000231565b6201518087620000c6919062000231565b62093a8089620000d7919062000231565b42620000e491906200027c565b620000f091906200027c565b620000fc91906200027c565b6200010891906200027c565b6200011491906200027c565b600481905550505050505050620002b7565b600080fd5b6000819050919050565b62000140816200012b565b81146200014c57600080fd5b50565b600081519050620001608162000135565b92915050565b60008060008060008060c0878903121562000186576200018562000126565b5b60006200019689828a016200014f565b9650506020620001a989828a016200014f565b9550506040620001bc89828a016200014f565b9450506060620001cf89828a016200014f565b9350506080620001e289828a016200014f565b92505060a0620001f589828a016200014f565b9150509295509295509295565b7f4e487b7100000000000000000000000000000000000000000000000000000000600052601160045260246000fd5b60006200023e826200012b565b91506200024b836200012b565b92508282026200025b816200012b565b9150828204841483151762000275576200027462000202565b5b5092915050565b600062000289826200012b565b915062000296836200012b565b9250828201905080821115620002b157620002b062000202565b5b92915050565b610c6780620002c76000396000f3fe60806040526004361061007f5760003560e01c8063953b8fb81161004e578063953b8fb8146101c8578063cc6cb19a146101f3578063ce1b088a14610230578063e914fa121461023a57610138565b80634bf717291461013d578063590e1ae3146101685780635958611e146101725780638da5cb5b1461019d57610138565b366101385760045442106100c8576040517f08c379a00000000000000000000000000000000000000000000000000000000081526004016100bf90610832565b60405180910390fd5b34600260003373ffffffffffffffffffffffffffffffffffffffff1673ffffffffffffffffffffffffffffffffffffffff1681526020019081526020016000206000828254610117919061088b565b925050819055503460036000828254610130919061088b565b925050819055005b600080fd5b34801561014957600080fd5b50610152610244565b60405161015f91906108ce565b60405180910390f35b61017061028b565b005b34801561017e57600080fd5b5061018761046a565b60405161019491906108ce565b60405180910390f35b3480156101a957600080fd5b506101b2610470565b6040516101bf919061092a565b60405180910390f35b3480156101d457600080fd5b506101dd610496565b6040516101ea91906108ce565b60405180910390f35b3480156101ff57600080fd5b5061021a60048036038101906102159190610976565b61049c565b60405161022791906108ce565b60405180910390f35b6102386104b4565b005b61024261063c565b005b6000600260003373ffffffffffffffffffffffffffffffffffffffff1673ffffffffffffffffffffffffffffffffffffffff16815260200190815260200160002054905090565b60045442116102cf576040517f08c379a00000000000000000000000000000000000000000000000000000000081526004016102c6906109ef565b60405180910390fd5b60005460035410610315576040517f08c379a000000000000000000000000000000000000000000000000000000000815260040161030c90610a81565b60405180910390fd5b6000600260003373ffffffffffffffffffffffffffffffffffffffff1673ffffffffffffffffffffffffffffffffffffffff1681526020019081526020016000205411610397576040517f08c379a000000000000000000000000000000000000000000000000000000000815260040161038e90610b13565b60405180910390fd5b6000600260003373ffffffffffffffffffffffffffffffffffffffff1673ffffffffffffffffffffffffffffffffffffffff1681526020019081526020016000205490506000600260003373ffffffffffffffffffffffffffffffffffffffff1673ffffffffffffffffffffffffffffffffffffffff168152602001908152602001600020819055503373ffffffffffffffffffffffffffffffffffffffff166108fc829081150290604051600060405180830381858888f19350505050158015610466573d6000803e3d6000fd5b5050565b60045481565b600160009054906101000a900473ffffffffffffffffffffffffffffffffffffffff1681565b60005481565b60026020528060005260406000206000915090505481565b600160009054906101000a900473ffffffffffffffffffffffffffffffffffffffff1673ffffffffffffffffffffffffffffffffffffffff163373ffffffffffffffffffffffffffffffffffffffff1614610544576040517f08c379a000000000000000000000000000000000000000000000000000000000815260040161053b90610ba5565b60405180910390fd5b600054600354101561058b576040517f08c379a000000000000000000000000000000000000000000000000000000000815260040161058290610a81565b60405180910390fd5b60045442116105cf576040517f08c379a00000000000000000000000000000000000000000000000000000000081526004016105c6906109ef565b60405180910390fd5b600160009054906101000a900473ffffffffffffffffffffffffffffffffffffffff1673ffffffffffffffffffffffffffffffffffffffff166108fc6003549081150290604051600060405180830381858888f19350505050158015610639573d6000803e3d6000fd5b50565b6004544210610680576040517f08c379a000000000000000000000000000000000000000000000000000000000815260040161067790610c11565b60405180910390fd5b6000600260003373ffffffffffffffffffffffffffffffffffffffff1673ffffffffffffffffffffffffffffffffffffffff1681526020019081526020016000205411610702576040517f08c379a00000000000000000000000000000000000000000000000000000000081526004016106f990610b13565b60405180910390fd5b6000600260003373ffffffffffffffffffffffffffffffffffffffff1673ffffffffffffffffffffffffffffffffffffffff1681526020019081526020016000205490506000600260003373ffffffffffffffffffffffffffffffffffffffff1673ffffffffffffffffffffffffffffffffffffffff168152602001908152602001600020819055503373ffffffffffffffffffffffffffffffffffffffff166108fc829081150290604051600060405180830381858888f193505050501580156107d1573d6000803e3d6000fd5b5050565b600082825260208201905092915050565b7f546869732066756e64696e67206973206f766572000000000000000000000000600082015250565b600061081c6014836107d5565b9150610827826107e6565b602082019050919050565b6000602082019050818103600083015261084b8161080f565b9050919050565b6000819050919050565b7f4e487b7100000000000000000000000000000000000000000000000000000000600052601160045260246000fd5b600061089682610852565b91506108a183610852565b92508282019050808211156108b9576108b861085c565b5b92915050565b6108c881610852565b82525050565b60006020820190506108e360008301846108bf565b92915050565b600073ffffffffffffffffffffffffffffffffffffffff82169050919050565b6000610914826108e9565b9050919050565b61092481610909565b82525050565b600060208201905061093f600083018461091b565b92915050565b600080fd5b61095381610909565b811461095e57600080fd5b50565b6000813590506109708161094a565b92915050565b60006020828403121561098c5761098b610945565b5b600061099a84828501610961565b91505092915050565b7f5468652066756e64696e67206973206e6f74206f766572207965740000000000600082015250565b60006109d9601b836107d5565b91506109e4826109a3565b602082019050919050565b60006020820190508181036000830152610a08816109cc565b9050919050565b7f5468652066756e64696e67206469646e27742072656163682074686520676f6160008201527f6c00000000000000000000000000000000000000000000000000000000000000602082015250565b6000610a6b6021836107d5565b9150610a7682610a0f565b604082019050919050565b60006020820190508181036000830152610a9a81610a5e565b9050919050565b7f596f75206469646e277420646f6e61746520746f20746869732066756e64696e60008201527f6700000000000000000000000000000000000000000000000000000000000000602082015250565b6000610afd6021836107d5565b9150610b0882610aa1565b604082019050919050565b60006020820190508181036000830152610b2c81610af0565b9050919050565b7f46756e64732077696c6c206f6e6c792062652072656c656173656420746f207460008201527f6865206f776e6572000000000000000000000000000000000000000000000000602082015250565b6000610b8f6028836107d5565b9150610b9a82610b33565b604082019050919050565b60006020820190508181036000830152610bbe81610b82565b9050919050565b7f5468652066756e64696e67206973206f76657220000000000000000000000000600082015250565b6000610bfb6014836107d5565b9150610c0682610bc5565b602082019050919050565b60006020820190508181036000830152610c2a81610bee565b905091905056fea2646970667358221220d7d6b05fb4ea04e2815bab319bc830ba201ce5bef7c8797c2b12ff6f74798a6564736f6c63430008130033",
					"opcodes": "PUSH1 0x80 PUSH1 0x40 MSTORE CALLVALUE DUP1 ISZERO PUSH3 0x11 JUMPI PUSH1 0x0 DUP1 REVERT JUMPDEST POP PUSH1 0x40 MLOAD PUSH3 0xF2E CODESIZE SUB DUP1 PUSH3 0xF2E DUP4 CODECOPY DUP2 DUP2 ADD PUSH1 0x40 MSTORE DUP2 ADD SWAP1 PUSH3 0x37 SWAP2 SWAP1 PUSH3 0x166 JUMP JUMPDEST DUP6 PUSH1 0x0 DUP2 SWAP1 SSTORE POP CALLER PUSH1 0x1 PUSH1 0x0 PUSH2 0x100 EXP DUP2 SLOAD DUP2 PUSH20 0xFFFFFFFFFFFFFFFFFFFFFFFFFFFFFFFFFFFFFFFF MUL NOT AND SWAP1 DUP4 PUSH20 0xFFFFFFFFFFFFFFFFFFFFFFFFFFFFFFFFFFFFFFFF AND MUL OR SWAP1 SSTORE POP PUSH1 0x0 PUSH1 0x3 DUP2 SWAP1 SSTORE POP PUSH1 0x1 DUP2 PUSH3 0x96 SWAP2 SWAP1 PUSH3 0x231 JUMP JUMPDEST PUSH1 0x3C DUP4 PUSH3 0xA5 SWAP2 SWAP1 PUSH3 0x231 JUMP JUMPDEST PUSH2 0xE10 DUP6 PUSH3 0xB5 SWAP2 SWAP1 PUSH3 0x231 JUMP JUMPDEST PUSH3 0x15180 DUP8 PUSH3 0xC6 SWAP2 SWAP1 PUSH3 0x231 JUMP JUMPDEST PUSH3 0x93A80 DUP10 PUSH3 0xD7 SWAP2 SWAP1 PUSH3 0x231 JUMP JUMPDEST TIMESTAMP PUSH3 0xE4 SWAP2 SWAP1 PUSH3 0x27C JUMP JUMPDEST PUSH3 0xF0 SWAP2 SWAP1 PUSH3 0x27C JUMP JUMPDEST PUSH3 0xFC SWAP2 SWAP1 PUSH3 0x27C JUMP JUMPDEST PUSH3 0x108 SWAP2 SWAP1 PUSH3 0x27C JUMP JUMPDEST PUSH3 0x114 SWAP2 SWAP1 PUSH3 0x27C JUMP JUMPDEST PUSH1 0x4 DUP2 SWAP1 SSTORE POP POP POP POP POP POP POP PUSH3 0x2B7 JUMP JUMPDEST PUSH1 0x0 DUP1 REVERT JUMPDEST PUSH1 0x0 DUP2 SWAP1 POP SWAP2 SWAP1 POP JUMP JUMPDEST PUSH3 0x140 DUP2 PUSH3 0x12B JUMP JUMPDEST DUP2 EQ PUSH3 0x14C JUMPI PUSH1 0x0 DUP1 REVERT JUMPDEST POP JUMP JUMPDEST PUSH1 0x0 DUP2 MLOAD SWAP1 POP PUSH3 0x160 DUP2 PUSH3 0x135 JUMP JUMPDEST SWAP3 SWAP2 POP POP JUMP JUMPDEST PUSH1 0x0 DUP1 PUSH1 0x0 DUP1 PUSH1 0x0 DUP1 PUSH1 0xC0 DUP8 DUP10 SUB SLT ISZERO PUSH3 0x186 JUMPI PUSH3 0x185 PUSH3 0x126 JUMP JUMPDEST JUMPDEST PUSH1 0x0 PUSH3 0x196 DUP10 DUP3 DUP11 ADD PUSH3 0x14F JUMP JUMPDEST SWAP7 POP POP PUSH1 0x20 PUSH3 0x1A9 DUP10 DUP3 DUP11 ADD PUSH3 0x14F JUMP JUMPDEST SWAP6 POP POP PUSH1 0x40 PUSH3 0x1BC DUP10 DUP3 DUP11 ADD PUSH3 0x14F JUMP JUMPDEST SWAP5 POP POP PUSH1 0x60 PUSH3 0x1CF DUP10 DUP3 DUP11 ADD PUSH3 0x14F JUMP JUMPDEST SWAP4 POP POP PUSH1 0x80 PUSH3 0x1E2 DUP10 DUP3 DUP11 ADD PUSH3 0x14F JUMP JUMPDEST SWAP3 POP POP PUSH1 0xA0 PUSH3 0x1F5 DUP10 DUP3 DUP11 ADD PUSH3 0x14F JUMP JUMPDEST SWAP2 POP POP SWAP3 SWAP6 POP SWAP3 SWAP6 POP SWAP3 SWAP6 JUMP JUMPDEST PUSH32 0x4E487B7100000000000000000000000000000000000000000000000000000000 PUSH1 0x0 MSTORE PUSH1 0x11 PUSH1 0x4 MSTORE PUSH1 0x24 PUSH1 0x0 REVERT JUMPDEST PUSH1 0x0 PUSH3 0x23E DUP3 PUSH3 0x12B JUMP JUMPDEST SWAP2 POP PUSH3 0x24B DUP4 PUSH3 0x12B JUMP JUMPDEST SWAP3 POP DUP3 DUP3 MUL PUSH3 0x25B DUP2 PUSH3 0x12B JUMP JUMPDEST SWAP2 POP DUP3 DUP3 DIV DUP5 EQ DUP4 ISZERO OR PUSH3 0x275 JUMPI PUSH3 0x274 PUSH3 0x202 JUMP JUMPDEST JUMPDEST POP SWAP3 SWAP2 POP POP JUMP JUMPDEST PUSH1 0x0 PUSH3 0x289 DUP3 PUSH3 0x12B JUMP JUMPDEST SWAP2 POP PUSH3 0x296 DUP4 PUSH3 0x12B JUMP JUMPDEST SWAP3 POP DUP3 DUP3 ADD SWAP1 POP DUP1 DUP3 GT ISZERO PUSH3 0x2B1 JUMPI PUSH3 0x2B0 PUSH3 0x202 JUMP JUMPDEST JUMPDEST SWAP3 SWAP2 POP POP JUMP JUMPDEST PUSH2 0xC67 DUP1 PUSH3 0x2C7 PUSH1 0x0 CODECOPY PUSH1 0x0 RETURN INVALID PUSH1 0x80 PUSH1 0x40 MSTORE PUSH1 0x4 CALLDATASIZE LT PUSH2 0x7F JUMPI PUSH1 0x0 CALLDATALOAD PUSH1 0xE0 SHR DUP1 PUSH4 0x953B8FB8 GT PUSH2 0x4E JUMPI DUP1 PUSH4 0x953B8FB8 EQ PUSH2 0x1C8 JUMPI DUP1 PUSH4 0xCC6CB19A EQ PUSH2 0x1F3 JUMPI DUP1 PUSH4 0xCE1B088A EQ PUSH2 0x230 JUMPI DUP1 PUSH4 0xE914FA12 EQ PUSH2 0x23A JUMPI PUSH2 0x138 JUMP JUMPDEST DUP1 PUSH4 0x4BF71729 EQ PUSH2 0x13D JUMPI DUP1 PUSH4 0x590E1AE3 EQ PUSH2 0x168 JUMPI DUP1 PUSH4 0x5958611E EQ PUSH2 0x172 JUMPI DUP1 PUSH4 0x8DA5CB5B EQ PUSH2 0x19D JUMPI PUSH2 0x138 JUMP JUMPDEST CALLDATASIZE PUSH2 0x138 JUMPI PUSH1 0x4 SLOAD TIMESTAMP LT PUSH2 0xC8 JUMPI PUSH1 0x40 MLOAD PUSH32 0x8C379A000000000000000000000000000000000000000000000000000000000 DUP2 MSTORE PUSH1 0x4 ADD PUSH2 0xBF SWAP1 PUSH2 0x832 JUMP JUMPDEST PUSH1 0x40 MLOAD DUP1 SWAP2 SUB SWAP1 REVERT JUMPDEST CALLVALUE PUSH1 0x2 PUSH1 0x0 CALLER PUSH20 0xFFFFFFFFFFFFFFFFFFFFFFFFFFFFFFFFFFFFFFFF AND PUSH20 0xFFFFFFFFFFFFFFFFFFFFFFFFFFFFFFFFFFFFFFFF AND DUP2 MSTORE PUSH1 0x20 ADD SWAP1 DUP2 MSTORE PUSH1 0x20 ADD PUSH1 0x0 KECCAK256 PUSH1 0x0 DUP3 DUP3 SLOAD PUSH2 0x117 SWAP2 SWAP1 PUSH2 0x88B JUMP JUMPDEST SWAP3 POP POP DUP2 SWAP1 SSTORE POP CALLVALUE PUSH1 0x3 PUSH1 0x0 DUP3 DUP3 SLOAD PUSH2 0x130 SWAP2 SWAP1 PUSH2 0x88B JUMP JUMPDEST SWAP3 POP POP DUP2 SWAP1 SSTORE STOP JUMPDEST PUSH1 0x0 DUP1 REVERT JUMPDEST CALLVALUE DUP1 ISZERO PUSH2 0x149 JUMPI PUSH1 0x0 DUP1 REVERT JUMPDEST POP PUSH2 0x152 PUSH2 0x244 JUMP JUMPDEST PUSH1 0x40 MLOAD PUSH2 0x15F SWAP2 SWAP1 PUSH2 0x8CE JUMP JUMPDEST PUSH1 0x40 MLOAD DUP1 SWAP2 SUB SWAP1 RETURN JUMPDEST PUSH2 0x170 PUSH2 0x28B JUMP JUMPDEST STOP JUMPDEST CALLVALUE DUP1 ISZERO PUSH2 0x17E JUMPI PUSH1 0x0 DUP1 REVERT JUMPDEST POP PUSH2 0x187 PUSH2 0x46A JUMP JUMPDEST PUSH1 0x40 MLOAD PUSH2 0x194 SWAP2 SWAP1 PUSH2 0x8CE JUMP JUMPDEST PUSH1 0x40 MLOAD DUP1 SWAP2 SUB SWAP1 RETURN JUMPDEST CALLVALUE DUP1 ISZERO PUSH2 0x1A9 JUMPI PUSH1 0x0 DUP1 REVERT JUMPDEST POP PUSH2 0x1B2 PUSH2 0x470 JUMP JUMPDEST PUSH1 0x40 MLOAD PUSH2 0x1BF SWAP2 SWAP1 PUSH2 0x92A JUMP JUMPDEST PUSH1 0x40 MLOAD DUP1 SWAP2 SUB SWAP1 RETURN JUMPDEST CALLVALUE DUP1 ISZERO PUSH2 0x1D4 JUMPI PUSH1 0x0 DUP1 REVERT JUMPDEST POP PUSH2 0x1DD PUSH2 0x496 JUMP JUMPDEST PUSH1 0x40 MLOAD PUSH2 0x1EA SWAP2 SWAP1 PUSH2 0x8CE JUMP JUMPDEST PUSH1 0x40 MLOAD DUP1 SWAP2 SUB SWAP1 RETURN JUMPDEST CALLVALUE DUP1 ISZERO PUSH2 0x1FF JUMPI PUSH1 0x0 DUP1 REVERT JUMPDEST POP PUSH2 0x21A PUSH1 0x4 DUP1 CALLDATASIZE SUB DUP2 ADD SWAP1 PUSH2 0x215 SWAP2 SWAP1 PUSH2 0x976 JUMP JUMPDEST PUSH2 0x49C JUMP JUMPDEST PUSH1 0x40 MLOAD PUSH2 0x227 SWAP2 SWAP1 PUSH2 0x8CE JUMP JUMPDEST PUSH1 0x40 MLOAD DUP1 SWAP2 SUB SWAP1 RETURN JUMPDEST PUSH2 0x238 PUSH2 0x4B4 JUMP JUMPDEST STOP JUMPDEST PUSH2 0x242 PUSH2 0x63C JUMP JUMPDEST STOP JUMPDEST PUSH1 0x0 PUSH1 0x2 PUSH1 0x0 CALLER PUSH20 0xFFFFFFFFFFFFFFFFFFFFFFFFFFFFFFFFFFFFFFFF AND PUSH20 0xFFFFFFFFFFFFFFFFFFFFFFFFFFFFFFFFFFFFFFFF AND DUP2 MSTORE PUSH1 0x20 ADD SWAP1 DUP2 MSTORE PUSH1 0x20 ADD PUSH1 0x0 KECCAK256 SLOAD SWAP1 POP SWAP1 JUMP JUMPDEST PUSH1 0x4 SLOAD TIMESTAMP GT PUSH2 0x2CF JUMPI PUSH1 0x40 MLOAD PUSH32 0x8C379A000000000000000000000000000000000000000000000000000000000 DUP2 MSTORE PUSH1 0x4 ADD PUSH2 0x2C6 SWAP1 PUSH2 0x9EF JUMP JUMPDEST PUSH1 0x40 MLOAD DUP1 SWAP2 SUB SWAP1 REVERT JUMPDEST PUSH1 0x0 SLOAD PUSH1 0x3 SLOAD LT PUSH2 0x315 JUMPI PUSH1 0x40 MLOAD PUSH32 0x8C379A000000000000000000000000000000000000000000000000000000000 DUP2 MSTORE PUSH1 0x4 ADD PUSH2 0x30C SWAP1 PUSH2 0xA81 JUMP JUMPDEST PUSH1 0x40 MLOAD DUP1 SWAP2 SUB SWAP1 REVERT JUMPDEST PUSH1 0x0 PUSH1 0x2 PUSH1 0x0 CALLER PUSH20 0xFFFFFFFFFFFFFFFFFFFFFFFFFFFFFFFFFFFFFFFF AND PUSH20 0xFFFFFFFFFFFFFFFFFFFFFFFFFFFFFFFFFFFFFFFF AND DUP2 MSTORE PUSH1 0x20 ADD SWAP1 DUP2 MSTORE PUSH1 0x20 ADD PUSH1 0x0 KECCAK256 SLOAD GT PUSH2 0x397 JUMPI PUSH1 0x40 MLOAD PUSH32 0x8C379A000000000000000000000000000000000000000000000000000000000 DUP2 MSTORE PUSH1 0x4 ADD PUSH2 0x38E SWAP1 PUSH2 0xB13 JUMP JUMPDEST PUSH1 0x40 MLOAD DUP1 SWAP2 SUB SWAP1 REVERT JUMPDEST PUSH1 0x0 PUSH1 0x2 PUSH1 0x0 CALLER PUSH20 0xFFFFFFFFFFFFFFFFFFFFFFFFFFFFFFFFFFFFFFFF AND PUSH20 0xFFFFFFFFFFFFFFFFFFFFFFFFFFFFFFFFFFFFFFFF AND DUP2 MSTORE PUSH1 0x20 ADD SWAP1 DUP2 MSTORE PUSH1 0x20 ADD PUSH1 0x0 KECCAK256 SLOAD SWAP1 POP PUSH1 0x0 PUSH1 0x2 PUSH1 0x0 CALLER PUSH20 0xFFFFFFFFFFFFFFFFFFFFFFFFFFFFFFFFFFFFFFFF AND PUSH20 0xFFFFFFFFFFFFFFFFFFFFFFFFFFFFFFFFFFFFFFFF AND DUP2 MSTORE PUSH1 0x20 ADD SWAP1 DUP2 MSTORE PUSH1 0x20 ADD PUSH1 0x0 KECCAK256 DUP2 SWAP1 SSTORE POP CALLER PUSH20 0xFFFFFFFFFFFFFFFFFFFFFFFFFFFFFFFFFFFFFFFF AND PUSH2 0x8FC DUP3 SWAP1 DUP2 ISZERO MUL SWAP1 PUSH1 0x40 MLOAD PUSH1 0x0 PUSH1 0x40 MLOAD DUP1 DUP4 SUB DUP2 DUP6 DUP9 DUP9 CALL SWAP4 POP POP POP POP ISZERO DUP1 ISZERO PUSH2 0x466 JUMPI RETURNDATASIZE PUSH1 0x0 DUP1 RETURNDATACOPY RETURNDATASIZE PUSH1 0x0 REVERT JUMPDEST POP POP JUMP JUMPDEST PUSH1 0x4 SLOAD DUP2 JUMP JUMPDEST PUSH1 0x1 PUSH1 0x0 SWAP1 SLOAD SWAP1 PUSH2 0x100 EXP SWAP1 DIV PUSH20 0xFFFFFFFFFFFFFFFFFFFFFFFFFFFFFFFFFFFFFFFF AND DUP2 JUMP JUMPDEST PUSH1 0x0 SLOAD DUP2 JUMP JUMPDEST PUSH1 0x2 PUSH1 0x20 MSTORE DUP1 PUSH1 0x0 MSTORE PUSH1 0x40 PUSH1 0x0 KECCAK256 PUSH1 0x0 SWAP2 POP SWAP1 POP SLOAD DUP2 JUMP JUMPDEST PUSH1 0x1 PUSH1 0x0 SWAP1 SLOAD SWAP1 PUSH2 0x100 EXP SWAP1 DIV PUSH20 0xFFFFFFFFFFFFFFFFFFFFFFFFFFFFFFFFFFFFFFFF AND PUSH20 0xFFFFFFFFFFFFFFFFFFFFFFFFFFFFFFFFFFFFFFFF AND CALLER PUSH20 0xFFFFFFFFFFFFFFFFFFFFFFFFFFFFFFFFFFFFFFFF AND EQ PUSH2 0x544 JUMPI PUSH1 0x40 MLOAD PUSH32 0x8C379A000000000000000000000000000000000000000000000000000000000 DUP2 MSTORE PUSH1 0x4 ADD PUSH2 0x53B SWAP1 PUSH2 0xBA5 JUMP JUMPDEST PUSH1 0x40 MLOAD DUP1 SWAP2 SUB SWAP1 REVERT JUMPDEST PUSH1 0x0 SLOAD PUSH1 0x3 SLOAD LT ISZERO PUSH2 0x58B JUMPI PUSH1 0x40 MLOAD PUSH32 0x8C379A000000000000000000000000000000000000000000000000000000000 DUP2 MSTORE PUSH1 0x4 ADD PUSH2 0x582 SWAP1 PUSH2 0xA81 JUMP JUMPDEST PUSH1 0x40 MLOAD DUP1 SWAP2 SUB SWAP1 REVERT JUMPDEST PUSH1 0x4 SLOAD TIMESTAMP GT PUSH2 0x5CF JUMPI PUSH1 0x40 MLOAD PUSH32 0x8C379A000000000000000000000000000000000000000000000000000000000 DUP2 MSTORE PUSH1 0x4 ADD PUSH2 0x5C6 SWAP1 PUSH2 0x9EF JUMP JUMPDEST PUSH1 0x40 MLOAD DUP1 SWAP2 SUB SWAP1 REVERT JUMPDEST PUSH1 0x1 PUSH1 0x0 SWAP1 SLOAD SWAP1 PUSH2 0x100 EXP SWAP1 DIV PUSH20 0xFFFFFFFFFFFFFFFFFFFFFFFFFFFFFFFFFFFFFFFF AND PUSH20 0xFFFFFFFFFFFFFFFFFFFFFFFFFFFFFFFFFFFFFFFF AND PUSH2 0x8FC PUSH1 0x3 SLOAD SWAP1 DUP2 ISZERO MUL SWAP1 PUSH1 0x40 MLOAD PUSH1 0x0 PUSH1 0x40 MLOAD DUP1 DUP4 SUB DUP2 DUP6 DUP9 DUP9 CALL SWAP4 POP POP POP POP ISZERO DUP1 ISZERO PUSH2 0x639 JUMPI RETURNDATASIZE PUSH1 0x0 DUP1 RETURNDATACOPY RETURNDATASIZE PUSH1 0x0 REVERT JUMPDEST POP JUMP JUMPDEST PUSH1 0x4 SLOAD TIMESTAMP LT PUSH2 0x680 JUMPI PUSH1 0x40 MLOAD PUSH32 0x8C379A000000000000000000000000000000000000000000000000000000000 DUP2 MSTORE PUSH1 0x4 ADD PUSH2 0x677 SWAP1 PUSH2 0xC11 JUMP JUMPDEST PUSH1 0x40 MLOAD DUP1 SWAP2 SUB SWAP1 REVERT JUMPDEST PUSH1 0x0 PUSH1 0x2 PUSH1 0x0 CALLER PUSH20 0xFFFFFFFFFFFFFFFFFFFFFFFFFFFFFFFFFFFFFFFF AND PUSH20 0xFFFFFFFFFFFFFFFFFFFFFFFFFFFFFFFFFFFFFFFF AND DUP2 MSTORE PUSH1 0x20 ADD SWAP1 DUP2 MSTORE PUSH1 0x20 ADD PUSH1 0x0 KECCAK256 SLOAD GT PUSH2 0x702 JUMPI PUSH1 0x40 MLOAD PUSH32 0x8C379A000000000000000000000000000000000000000000000000000000000 DUP2 MSTORE PUSH1 0x4 ADD PUSH2 0x6F9 SWAP1 PUSH2 0xB13 JUMP JUMPDEST PUSH1 0x40 MLOAD DUP1 SWAP2 SUB SWAP1 REVERT JUMPDEST PUSH1 0x0 PUSH1 0x2 PUSH1 0x0 CALLER PUSH20 0xFFFFFFFFFFFFFFFFFFFFFFFFFFFFFFFFFFFFFFFF AND PUSH20 0xFFFFFFFFFFFFFFFFFFFFFFFFFFFFFFFFFFFFFFFF AND DUP2 MSTORE PUSH1 0x20 ADD SWAP1 DUP2 MSTORE PUSH1 0x20 ADD PUSH1 0x0 KECCAK256 SLOAD SWAP1 POP PUSH1 0x0 PUSH1 0x2 PUSH1 0x0 CALLER PUSH20 0xFFFFFFFFFFFFFFFFFFFFFFFFFFFFFFFFFFFFFFFF AND PUSH20 0xFFFFFFFFFFFFFFFFFFFFFFFFFFFFFFFFFFFFFFFF AND DUP2 MSTORE PUSH1 0x20 ADD SWAP1 DUP2 MSTORE PUSH1 0x20 ADD PUSH1 0x0 KECCAK256 DUP2 SWAP1 SSTORE POP CALLER PUSH20 0xFFFFFFFFFFFFFFFFFFFFFFFFFFFFFFFFFFFFFFFF AND PUSH2 0x8FC DUP3 SWAP1 DUP2 ISZERO MUL SWAP1 PUSH1 0x40 MLOAD PUSH1 0x0 PUSH1 0x40 MLOAD DUP1 DUP4 SUB DUP2 DUP6 DUP9 DUP9 CALL SWAP4 POP POP POP POP ISZERO DUP1 ISZERO PUSH2 0x7D1 JUMPI RETURNDATASIZE PUSH1 0x0 DUP1 RETURNDATACOPY RETURNDATASIZE PUSH1 0x0 REVERT JUMPDEST POP POP JUMP JUMPDEST PUSH1 0x0 DUP3 DUP3 MSTORE PUSH1 0x20 DUP3 ADD SWAP1 POP SWAP3 SWAP2 POP POP JUMP JUMPDEST PUSH32 0x546869732066756E64696E67206973206F766572000000000000000000000000 PUSH1 0x0 DUP3 ADD MSTORE POP JUMP JUMPDEST PUSH1 0x0 PUSH2 0x81C PUSH1 0x14 DUP4 PUSH2 0x7D5 JUMP JUMPDEST SWAP2 POP PUSH2 0x827 DUP3 PUSH2 0x7E6 JUMP JUMPDEST PUSH1 0x20 DUP3 ADD SWAP1 POP SWAP2 SWAP1 POP JUMP JUMPDEST PUSH1 0x0 PUSH1 0x20 DUP3 ADD SWAP1 POP DUP2 DUP2 SUB PUSH1 0x0 DUP4 ADD MSTORE PUSH2 0x84B DUP2 PUSH2 0x80F JUMP JUMPDEST SWAP1 POP SWAP2 SWAP1 POP JUMP JUMPDEST PUSH1 0x0 DUP2 SWAP1 POP SWAP2 SWAP1 POP JUMP JUMPDEST PUSH32 0x4E487B7100000000000000000000000000000000000000000000000000000000 PUSH1 0x0 MSTORE PUSH1 0x11 PUSH1 0x4 MSTORE PUSH1 0x24 PUSH1 0x0 REVERT JUMPDEST PUSH1 0x0 PUSH2 0x896 DUP3 PUSH2 0x852 JUMP JUMPDEST SWAP2 POP PUSH2 0x8A1 DUP4 PUSH2 0x852 JUMP JUMPDEST SWAP3 POP DUP3 DUP3 ADD SWAP1 POP DUP1 DUP3 GT ISZERO PUSH2 0x8B9 JUMPI PUSH2 0x8B8 PUSH2 0x85C JUMP JUMPDEST JUMPDEST SWAP3 SWAP2 POP POP JUMP JUMPDEST PUSH2 0x8C8 DUP2 PUSH2 0x852 JUMP JUMPDEST DUP3 MSTORE POP POP JUMP JUMPDEST PUSH1 0x0 PUSH1 0x20 DUP3 ADD SWAP1 POP PUSH2 0x8E3 PUSH1 0x0 DUP4 ADD DUP5 PUSH2 0x8BF JUMP JUMPDEST SWAP3 SWAP2 POP POP JUMP JUMPDEST PUSH1 0x0 PUSH20 0xFFFFFFFFFFFFFFFFFFFFFFFFFFFFFFFFFFFFFFFF DUP3 AND SWAP1 POP SWAP2 SWAP1 POP JUMP JUMPDEST PUSH1 0x0 PUSH2 0x914 DUP3 PUSH2 0x8E9 JUMP JUMPDEST SWAP1 POP SWAP2 SWAP1 POP JUMP JUMPDEST PUSH2 0x924 DUP2 PUSH2 0x909 JUMP JUMPDEST DUP3 MSTORE POP POP JUMP JUMPDEST PUSH1 0x0 PUSH1 0x20 DUP3 ADD SWAP1 POP PUSH2 0x93F PUSH1 0x0 DUP4 ADD DUP5 PUSH2 0x91B JUMP JUMPDEST SWAP3 SWAP2 POP POP JUMP JUMPDEST PUSH1 0x0 DUP1 REVERT JUMPDEST PUSH2 0x953 DUP2 PUSH2 0x909 JUMP JUMPDEST DUP2 EQ PUSH2 0x95E JUMPI PUSH1 0x0 DUP1 REVERT JUMPDEST POP JUMP JUMPDEST PUSH1 0x0 DUP2 CALLDATALOAD SWAP1 POP PUSH2 0x970 DUP2 PUSH2 0x94A JUMP JUMPDEST SWAP3 SWAP2 POP POP JUMP JUMPDEST PUSH1 0x0 PUSH1 0x20 DUP3 DUP5 SUB SLT ISZERO PUSH2 0x98C JUMPI PUSH2 0x98B PUSH2 0x945 JUMP JUMPDEST JUMPDEST PUSH1 0x0 PUSH2 0x99A DUP5 DUP3 DUP6 ADD PUSH2 0x961 JUMP JUMPDEST SWAP2 POP POP SWAP3 SWAP2 POP POP JUMP JUMPDEST PUSH32 0x5468652066756E64696E67206973206E6F74206F766572207965740000000000 PUSH1 0x0 DUP3 ADD MSTORE POP JUMP JUMPDEST PUSH1 0x0 PUSH2 0x9D9 PUSH1 0x1B DUP4 PUSH2 0x7D5 JUMP JUMPDEST SWAP2 POP PUSH2 0x9E4 DUP3 PUSH2 0x9A3 JUMP JUMPDEST PUSH1 0x20 DUP3 ADD SWAP1 POP SWAP2 SWAP1 POP JUMP JUMPDEST PUSH1 0x0 PUSH1 0x20 DUP3 ADD SWAP1 POP DUP2 DUP2 SUB PUSH1 0x0 DUP4 ADD MSTORE PUSH2 0xA08 DUP2 PUSH2 0x9CC JUMP JUMPDEST SWAP1 POP SWAP2 SWAP1 POP JUMP JUMPDEST PUSH32 0x5468652066756E64696E67206469646E27742072656163682074686520676F61 PUSH1 0x0 DUP3 ADD MSTORE PUSH32 0x6C00000000000000000000000000000000000000000000000000000000000000 PUSH1 0x20 DUP3 ADD MSTORE POP JUMP JUMPDEST PUSH1 0x0 PUSH2 0xA6B PUSH1 0x21 DUP4 PUSH2 0x7D5 JUMP JUMPDEST SWAP2 POP PUSH2 0xA76 DUP3 PUSH2 0xA0F JUMP JUMPDEST PUSH1 0x40 DUP3 ADD SWAP1 POP SWAP2 SWAP1 POP JUMP JUMPDEST PUSH1 0x0 PUSH1 0x20 DUP3 ADD SWAP1 POP DUP2 DUP2 SUB PUSH1 0x0 DUP4 ADD MSTORE PUSH2 0xA9A DUP2 PUSH2 0xA5E JUMP JUMPDEST SWAP1 POP SWAP2 SWAP1 POP JUMP JUMPDEST PUSH32 0x596F75206469646E277420646F6E61746520746F20746869732066756E64696E PUSH1 0x0 DUP3 ADD MSTORE PUSH32 0x6700000000000000000000000000000000000000000000000000000000000000 PUSH1 0x20 DUP3 ADD MSTORE POP JUMP JUMPDEST PUSH1 0x0 PUSH2 0xAFD PUSH1 0x21 DUP4 PUSH2 0x7D5 JUMP JUMPDEST SWAP2 POP PUSH2 0xB08 DUP3 PUSH2 0xAA1 JUMP JUMPDEST PUSH1 0x40 DUP3 ADD SWAP1 POP SWAP2 SWAP1 POP JUMP JUMPDEST PUSH1 0x0 PUSH1 0x20 DUP3 ADD SWAP1 POP DUP2 DUP2 SUB PUSH1 0x0 DUP4 ADD MSTORE PUSH2 0xB2C DUP2 PUSH2 0xAF0 JUMP JUMPDEST SWAP1 POP SWAP2 SWAP1 POP JUMP JUMPDEST PUSH32 0x46756E64732077696C6C206F6E6C792062652072656C656173656420746F2074 PUSH1 0x0 DUP3 ADD MSTORE PUSH32 0x6865206F776E6572000000000000000000000000000000000000000000000000 PUSH1 0x20 DUP3 ADD MSTORE POP JUMP JUMPDEST PUSH1 0x0 PUSH2 0xB8F PUSH1 0x28 DUP4 PUSH2 0x7D5 JUMP JUMPDEST SWAP2 POP PUSH2 0xB9A DUP3 PUSH2 0xB33 JUMP JUMPDEST PUSH1 0x40 DUP3 ADD SWAP1 POP SWAP2 SWAP1 POP JUMP JUMPDEST PUSH1 0x0 PUSH1 0x20 DUP3 ADD SWAP1 POP DUP2 DUP2 SUB PUSH1 0x0 DUP4 ADD MSTORE PUSH2 0xBBE DUP2 PUSH2 0xB82 JUMP JUMPDEST SWAP1 POP SWAP2 SWAP1 POP JUMP JUMPDEST PUSH32 0x5468652066756E64696E67206973206F76657220000000000000000000000000 PUSH1 0x0 DUP3 ADD MSTORE POP JUMP JUMPDEST PUSH1 0x0 PUSH2 0xBFB PUSH1 0x14 DUP4 PUSH2 0x7D5 JUMP JUMPDEST SWAP2 POP PUSH2 0xC06 DUP3 PUSH2 0xBC5 JUMP JUMPDEST PUSH1 0x20 DUP3 ADD SWAP1 POP SWAP2 SWAP1 POP JUMP JUMPDEST PUSH1 0x0 PUSH1 0x20 DUP3 ADD SWAP1 POP DUP2 DUP2 SUB PUSH1 0x0 DUP4 ADD MSTORE PUSH2 0xC2A DUP2 PUSH2 0xBEE JUMP JUMPDEST SWAP1 POP SWAP2 SWAP1 POP JUMP INVALID LOG2 PUSH5 0x6970667358 0x22 SLT KECCAK256 0xD7 0xD6 0xB0 0x5F 0xB4 0xEA DIV 0xE2 DUP2 JUMPDEST 0xAB BALANCE SWAP12 0xC8 ADDRESS 0xBA KECCAK256 SHR 0xE5 0xBE 0xF7 0xC8 PUSH26 0x7C2B12FF6F74798A6564736F6C63430008130033000000000000 "
				},
				"gasEstimates": {
					"creation": {
						"codeDepositCost": "635000",
						"executionCost": "infinite",
						"totalCost": "infinite"
					},
					"external": {
						"cancelFund()": "infinite",
						"donations(address)": "2836",
						"finishTime()": "2474",
						"getDonation()": "2527",
						"owner()": "2581",
						"refund()": "infinite",
						"targetAmount()": "2429",
						"withdrawDonations()": "infinite"
					}
				},
				"methodIdentifiers": {
					"cancelFund()": "e914fa12",
					"donations(address)": "cc6cb19a",
					"finishTime()": "5958611e",
					"getDonation()": "4bf71729",
					"owner()": "8da5cb5b",
					"refund()": "590e1ae3",
					"targetAmount()": "953b8fb8",
					"withdrawDonations()": "ce1b088a"
				}
			},
			"storageLayout": {
				"storage": [
					{
						"astId": 3,
						"contract": "contracts/Fundraising.sol:Fundraising",
						"label": "targetAmount",
						"offset": 0,
						"slot": "0",
						"type": "t_uint256"
					},
					{
						"astId": 5,
						"contract": "contracts/Fundraising.sol:Fundraising",
						"label": "owner",
						"offset": 0,
						"slot": "1",
						"type": "t_address"
					},
					{
						"astId": 9,
						"contract": "contracts/Fundraising.sol:Fundraising",
						"label": "donations",
						"offset": 0,
						"slot": "2",
						"type": "t_mapping(t_address,t_uint256)"
					},
					{
						"astId": 11,
						"contract": "contracts/Fundraising.sol:Fundraising",
						"label": "raisedAmount",
						"offset": 0,
						"slot": "3",
						"type": "t_uint256"
					},
					{
						"astId": 13,
						"contract": "contracts/Fundraising.sol:Fundraising",
						"label": "finishTime",
						"offset": 0,
						"slot": "4",
						"type": "t_uint256"
					}
				],
				"types": {
					"t_address": {
						"encoding": "inplace",
						"label": "address",
						"numberOfBytes": "20"
					},
					"t_mapping(t_address,t_uint256)": {
						"encoding": "mapping",
						"key": "t_address",
						"label": "mapping(address => uint256)",
						"numberOfBytes": "32",
						"value": "t_uint256"
					},
					"t_uint256": {
						"encoding": "inplace",
						"label": "uint256",
						"numberOfBytes": "32"
					}
				}
			},
			"userdoc": {
				"kind": "user",
				"methods": {},
				"version": 1
			}
		}
	}
}