{
  "contractName": "Counter",
  "abi": [
    {
      "inputs": [],
      "stateMutability": "nonpayable",
      "type": "constructor"
    },
    {
      "inputs": [],
      "name": "getResult",
      "outputs": [
        {
          "internalType": "int256",
          "name": "",
          "type": "int256"
        }
      ],
      "stateMutability": "view",
      "type": "function",
      "constant": true
    },
    {
      "inputs": [
        {
          "internalType": "int256",
          "name": "_num",
          "type": "int256"
        },
        {
          "internalType": "int256",
          "name": "_num2",
          "type": "int256"
        }
      ],
      "name": "add",
      "outputs": [],
      "stateMutability": "nonpayable",
      "type": "function"
    },
    {
      "inputs": [
        {
          "internalType": "int256",
          "name": "_num",
          "type": "int256"
        },
        {
          "internalType": "int256",
          "name": "_num2",
          "type": "int256"
        }
      ],
      "name": "minus",
      "outputs": [],
      "stateMutability": "nonpayable",
      "type": "function"
    },
    {
      "inputs": [],
      "name": "increment",
      "outputs": [],
      "stateMutability": "nonpayable",
      "type": "function"
    },
    {
      "inputs": [],
      "name": "decrement",
      "outputs": [],
      "stateMutability": "nonpayable",
      "type": "function"
    }
  ],
  "bytecode": "0x608060405234801561001057600080fd5b5060008081905550610368806100276000396000f3fe608060405234801561001057600080fd5b50600436106100575760003560e01c80631858c77d1461005c5780632baeceb714610078578063a5f3c23b14610082578063d09de08a1461009e578063de292789146100a8575b600080fd5b61007660048036038101906100719190610182565b6100c6565b005b6100806100f6565b005b61009c60048036038101906100979190610182565b61010f565b005b6100a6610125565b005b6100b061013e565b6040516100bd91906101d1565b60405180910390f35b808212156100df5781816100da919061021b565b6100ec565b80826100eb919061021b565b5b6000819055505050565b6000808154809291906101089061025e565b9190505550565b808261011b91906102a6565b6000819055505050565b600080815480929190610137906102ea565b9190505550565b60008054905090565b600080fd5b6000819050919050565b61015f8161014c565b811461016a57600080fd5b50565b60008135905061017c81610156565b92915050565b6000806040838503121561019957610198610147565b5b60006101a78582860161016d565b92505060206101b88582860161016d565b9150509250929050565b6101cb8161014c565b82525050565b60006020820190506101e660008301846101c2565b92915050565b7f4e487b7100000000000000000000000000000000000000000000000000000000600052601160045260246000fd5b60006102268261014c565b91506102318361014c565b9250828203905081811260008412168282136000851215161715610258576102576101ec565b5b92915050565b60006102698261014c565b91507f8000000000000000000000000000000000000000000000000000000000000000820361029b5761029a6101ec565b5b600182039050919050565b60006102b18261014c565b91506102bc8361014c565b9250828201905082811215600083121683821260008412151617156102e4576102e36101ec565b5b92915050565b60006102f58261014c565b91507f7fffffffffffffffffffffffffffffffffffffffffffffffffffffffffffffff8203610327576103266101ec565b5b60018201905091905056fea2646970667358221220338e7a18bdeda9fee40a2253b0592f693e4151cf9ca58e632823394e1167991664736f6c63430008120033",
  "immutableReferences": {},
  "source": "// SPDX-License-Identifier: MIT\r\n//   <<   ? \r\npragma solidity ^0.8.18;\r\n\r\n//   ,  0.5.15\r\n\r\ncontract Counter {\r\n  int256 private result;\r\n\r\n  constructor() {\r\n    result = 0;\r\n  }\r\n\r\n  function getResult() public view returns (int256) {\r\n    return result;\r\n  }\r\n\r\n  function add(int _num, int _num2) public {\r\n    result = _num + _num2;\r\n  }\r\n\r\n  function minus(int _num, int _num2) public {\r\n    result = (_num >= _num2) ? _num - _num2 : _num2 - _num;\r\n  }\r\n\r\n  function increment() public {\r\n    result++;\r\n  }\r\n\r\n  function decrement() public {\r\n    result--;\r\n  }\r\n}\r\n",
  "sourcePath": "C:\\Users\\KGA_29\\Desktop\\blockchain_class\\\\230302\\contracts\\Counter.sol",
  "compiler": {
    "name": "solc",
    "version": "0.8.18+commit.87f61d96.Emscripten.clang"
  },
  "schemaVersion": "3.4.12",
  "updatedAt": "2023-03-02T01:45:32.783Z",
  "networkType": "ethereum",
  "devdoc": {
    "kind": "dev",
    "methods": {},
    "version": 1
  },
  "userdoc": {
    "kind": "user",
    "methods": {},
    "version": 1
  }
}