{
  "contractName": "Review",
  "abi": [
    {
      "inputs": [],
      "stateMutability": "nonpayable",
      "type": "constructor"
    },
    {
      "inputs": [],
      "name": "getResult",
      "outputs": [
        {
          "internalType": "int256",
          "name": "",
          "type": "int256"
        }
      ],
      "stateMutability": "view",
      "type": "function",
      "constant": true
    },
    {
      "inputs": [],
      "name": "increment",
      "outputs": [],
      "stateMutability": "nonpayable",
      "type": "function"
    },
    {
      "inputs": [],
      "name": "decrement",
      "outputs": [],
      "stateMutability": "nonpayable",
      "type": "function"
    }
  ],
  "bytecode": "0x608060405234801561001057600080fd5b50600080819055506101dc806100276000396000f3fe608060405234801561001057600080fd5b50600436106100415760003560e01c80632baeceb714610046578063d09de08a14610050578063de2927891461005a575b600080fd5b61004e610078565b005b610058610091565b005b6100626100aa565b60405161006f91906100cc565b60405180910390f35b60008081548092919061008a90610116565b9190505550565b6000808154809291906100a39061015e565b9190505550565b60008054905090565b6000819050919050565b6100c6816100b3565b82525050565b60006020820190506100e160008301846100bd565b92915050565b7f4e487b7100000000000000000000000000000000000000000000000000000000600052601160045260246000fd5b6000610121826100b3565b91507f80000000000000000000000000000000000000000000000000000000000000008203610153576101526100e7565b5b600182039050919050565b6000610169826100b3565b91507f7fffffffffffffffffffffffffffffffffffffffffffffffffffffffffffffff820361019b5761019a6100e7565b5b60018201905091905056fea26469706673582212203c07b0240eecbed54caa63f30c93cb1edd05975639110b3341071091f292d31f64736f6c63430008120033",
  "immutableReferences": {},
  "source": "// SPDX-License-Identifier: MIT\r\n// 라이선스 표기 << 어떤 라이선스 사용하는가? 필요함\r\npragma solidity ^0.8.18;\r\n\r\ncontract Review {\r\n  int256 private result;\r\n\r\n  constructor() {\r\n    result = 0;\r\n  }\r\n\r\n  function getResult() public view returns (int256) {\r\n    return result;\r\n  }\r\n\r\n  function increment() public {\r\n    result++;\r\n  }\r\n\r\n  function decrement() public {\r\n    result--;\r\n  }\r\n}\r\n",
  "sourcePath": "C:\\Users\\KGA_29\\Desktop\\blockchain_class\\수업요약테스트\\230302test\\contracts\\Review.sol",
  "compiler": {
    "name": "solc",
    "version": "0.8.18+commit.87f61d96.Emscripten.clang"
  },
  "schemaVersion": "3.4.12",
  "updatedAt": "2023-03-02T05:02:10.737Z",
  "networkType": "ethereum",
  "devdoc": {
    "kind": "dev",
    "methods": {},
    "version": 1
  },
  "userdoc": {
    "kind": "user",
    "methods": {},
    "version": 1
  }
}