{
  "contractName": "Counter",
  "abi": [
    {
      "inputs": [],
      "stateMutability": "nonpayable",
      "type": "constructor"
    },
    {
      "anonymous": false,
      "inputs": [
        {
          "indexed": false,
          "internalType": "int256",
          "name": "result",
          "type": "int256"
        }
      ],
      "name": "Result",
      "type": "event"
    },
    {
      "inputs": [],
      "name": "getResult",
      "outputs": [
        {
          "internalType": "int256",
          "name": "",
          "type": "int256"
        }
      ],
      "stateMutability": "view",
      "type": "function",
      "constant": true
    },
    {
      "inputs": [
        {
          "internalType": "int256",
          "name": "_num",
          "type": "int256"
        },
        {
          "internalType": "int256",
          "name": "_num2",
          "type": "int256"
        }
      ],
      "name": "add",
      "outputs": [],
      "stateMutability": "nonpayable",
      "type": "function"
    },
    {
      "inputs": [
        {
          "internalType": "int256",
          "name": "_num",
          "type": "int256"
        },
        {
          "internalType": "int256",
          "name": "_num2",
          "type": "int256"
        }
      ],
      "name": "minus",
      "outputs": [],
      "stateMutability": "nonpayable",
      "type": "function"
    },
    {
      "inputs": [],
      "name": "increment",
      "outputs": [],
      "stateMutability": "nonpayable",
      "type": "function"
    },
    {
      "inputs": [],
      "name": "decrement",
      "outputs": [],
      "stateMutability": "nonpayable",
      "type": "function"
    }
  ],
  "bytecode": "0x608060405234801561001057600080fd5b50600080819055506103da806100276000396000f3fe608060405234801561001057600080fd5b50600436106100575760003560e01c80631858c77d1461005c5780632baeceb714610078578063a5f3c23b14610082578063d09de08a1461009e578063de292789146100a8575b600080fd5b610076600480360381019061007191906101f4565b6100c6565b005b6100806100f6565b005b61009c600480360381019061009791906101f4565b610148565b005b6100a661015e565b005b6100b06101b0565b6040516100bd9190610243565b60405180910390f35b808212156100df5781816100da919061028d565b6100ec565b80826100eb919061028d565b5b6000819055505050565b600080815480929190610108906102d0565b91905055507fcf2df36f3b8930c943343097fc03d8dbfc79edcb1c1b6dc5a599995f3a25494b60005460405161013e9190610243565b60405180910390a1565b80826101549190610318565b6000819055505050565b6000808154809291906101709061035c565b91905055507fcf2df36f3b8930c943343097fc03d8dbfc79edcb1c1b6dc5a599995f3a25494b6000546040516101a69190610243565b60405180910390a1565b60008054905090565b600080fd5b6000819050919050565b6101d1816101be565b81146101dc57600080fd5b50565b6000813590506101ee816101c8565b92915050565b6000806040838503121561020b5761020a6101b9565b5b6000610219858286016101df565b925050602061022a858286016101df565b9150509250929050565b61023d816101be565b82525050565b60006020820190506102586000830184610234565b92915050565b7f4e487b7100000000000000000000000000000000000000000000000000000000600052601160045260246000fd5b6000610298826101be565b91506102a3836101be565b92508282039050818112600084121682821360008512151617156102ca576102c961025e565b5b92915050565b60006102db826101be565b91507f8000000000000000000000000000000000000000000000000000000000000000820361030d5761030c61025e565b5b600182039050919050565b6000610323826101be565b915061032e836101be565b9250828201905082811215600083121683821260008412151617156103565761035561025e565b5b92915050565b6000610367826101be565b91507f7fffffffffffffffffffffffffffffffffffffffffffffffffffffffffffffff82036103995761039861025e565b5b60018201905091905056fea26469706673582212202534be6e3fe9cceb5ef64234273e51ad2d86ab3b9ff109edf874e1cdd2f8ae1864736f6c63430008130033",
  "immutableReferences": {},
  "source": "// SPDX-License-Identifier: MIT\r\n//   <<   ? \r\npragma solidity ^0.8.18;\r\n\r\n//   ,  0.5.15\r\n//    ?\r\ncontract Counter {\r\n  int256 private result;\r\n  event Result(int256 result);\r\n\r\n  constructor() {\r\n    result = 0;\r\n  }\r\n\r\n  function getResult() public view returns (int256) {\r\n    return result;\r\n  }\r\n\r\n  function add(int _num, int _num2) public {\r\n    result = _num + _num2;\r\n  }\r\n\r\n  function minus(int _num, int _num2) public {\r\n    result = (_num >= _num2) ? _num - _num2 : _num2 - _num;\r\n  }\r\n\r\n  function increment() public {\r\n    result++;\r\n    emit Result(result);\r\n  }\r\n\r\n  function decrement() public {\r\n    result--;\r\n    emit Result(result);\r\n  }\r\n}\r\n",
  "sourcePath": "C:\\Users\\KGA_29\\Desktop\\blockchain_class\\\\230303\\back\\contracts\\Counter.sol",
  "compiler": {
    "name": "solc",
    "version": "0.8.19+commit.7dd6d404.Emscripten.clang"
  },
  "schemaVersion": "3.4.13",
  "updatedAt": "2023-03-03T01:20:19.044Z",
  "networkType": "ethereum",
  "devdoc": {
    "kind": "dev",
    "methods": {},
    "version": 1
  },
  "userdoc": {
    "kind": "user",
    "methods": {},
    "version": 1
  }
}